{
  "contracts/VELAMIS.sol": {
    "Velamis": {
      "abi": [
        {
          "inputs": [],
          "stateMutability": "nonpayable",
          "type": "constructor"
        },
        {
          "anonymous": false,
          "inputs": [
            {
              "indexed": true,
              "internalType": "address",
              "name": "owner",
              "type": "address"
            },
            {
              "indexed": true,
              "internalType": "address",
              "name": "spender",
              "type": "address"
            },
            {
              "indexed": false,
              "internalType": "uint256",
              "name": "value",
              "type": "uint256"
            }
          ],
          "name": "Approval",
          "type": "event"
        },
        {
          "anonymous": false,
          "inputs": [
            {
              "indexed": true,
              "internalType": "address",
              "name": "from",
              "type": "address"
            },
            {
              "indexed": true,
              "internalType": "address",
              "name": "to",
              "type": "address"
            },
            {
              "indexed": false,
              "internalType": "uint256",
              "name": "value",
              "type": "uint256"
            }
          ],
          "name": "Transfer",
          "type": "event"
        },
        {
          "inputs": [],
          "name": "AdvisoryPercent",
          "outputs": [
            {
              "internalType": "uint256",
              "name": "",
              "type": "uint256"
            }
          ],
          "stateMutability": "view",
          "type": "function"
        },
        {
          "inputs": [],
          "name": "AdvisoryWallet",
          "outputs": [
            {
              "internalType": "address",
              "name": "",
              "type": "address"
            }
          ],
          "stateMutability": "view",
          "type": "function"
        },
        {
          "inputs": [],
          "name": "CompanyPercent",
          "outputs": [
            {
              "internalType": "uint256",
              "name": "",
              "type": "uint256"
            }
          ],
          "stateMutability": "view",
          "type": "function"
        },
        {
          "inputs": [],
          "name": "CompanyWallet",
          "outputs": [
            {
              "internalType": "address",
              "name": "",
              "type": "address"
            }
          ],
          "stateMutability": "view",
          "type": "function"
        },
        {
          "inputs": [],
          "name": "EcoGrowthPercent",
          "outputs": [
            {
              "internalType": "uint256",
              "name": "",
              "type": "uint256"
            }
          ],
          "stateMutability": "view",
          "type": "function"
        },
        {
          "inputs": [],
          "name": "EcoGrowthWallet",
          "outputs": [
            {
              "internalType": "address",
              "name": "",
              "type": "address"
            }
          ],
          "stateMutability": "view",
          "type": "function"
        },
        {
          "inputs": [
            {
              "internalType": "uint256",
              "name": "",
              "type": "uint256"
            }
          ],
          "name": "IssuancePercent",
          "outputs": [
            {
              "internalType": "uint256",
              "name": "",
              "type": "uint256"
            }
          ],
          "stateMutability": "view",
          "type": "function"
        },
        {
          "inputs": [],
          "name": "ManageWallet",
          "outputs": [
            {
              "internalType": "address",
              "name": "",
              "type": "address"
            }
          ],
          "stateMutability": "view",
          "type": "function"
        },
        {
          "inputs": [],
          "name": "PauseWallet",
          "outputs": [
            {
              "internalType": "address",
              "name": "",
              "type": "address"
            }
          ],
          "stateMutability": "view",
          "type": "function"
        },
        {
          "inputs": [],
          "name": "PrivSalePercent",
          "outputs": [
            {
              "internalType": "uint256",
              "name": "",
              "type": "uint256"
            }
          ],
          "stateMutability": "view",
          "type": "function"
        },
        {
          "inputs": [],
          "name": "PrivSaleWallet",
          "outputs": [
            {
              "internalType": "address",
              "name": "",
              "type": "address"
            }
          ],
          "stateMutability": "view",
          "type": "function"
        },
        {
          "inputs": [],
          "name": "PubSalePercent",
          "outputs": [
            {
              "internalType": "uint256",
              "name": "",
              "type": "uint256"
            }
          ],
          "stateMutability": "view",
          "type": "function"
        },
        {
          "inputs": [],
          "name": "PubSaleWallet",
          "outputs": [
            {
              "internalType": "address",
              "name": "",
              "type": "address"
            }
          ],
          "stateMutability": "view",
          "type": "function"
        },
        {
          "inputs": [],
          "name": "StakingRewardPercent",
          "outputs": [
            {
              "internalType": "uint256",
              "name": "",
              "type": "uint256"
            }
          ],
          "stateMutability": "view",
          "type": "function"
        },
        {
          "inputs": [],
          "name": "StakingRewardWallet",
          "outputs": [
            {
              "internalType": "address",
              "name": "",
              "type": "address"
            }
          ],
          "stateMutability": "view",
          "type": "function"
        },
        {
          "inputs": [],
          "name": "TeamPercent",
          "outputs": [
            {
              "internalType": "uint256",
              "name": "",
              "type": "uint256"
            }
          ],
          "stateMutability": "view",
          "type": "function"
        },
        {
          "inputs": [],
          "name": "TeamWallet",
          "outputs": [
            {
              "internalType": "address",
              "name": "",
              "type": "address"
            }
          ],
          "stateMutability": "view",
          "type": "function"
        },
        {
          "inputs": [],
          "name": "TreasuryPercent",
          "outputs": [
            {
              "internalType": "uint256",
              "name": "",
              "type": "uint256"
            }
          ],
          "stateMutability": "view",
          "type": "function"
        },
        {
          "inputs": [],
          "name": "TreasuryWallet",
          "outputs": [
            {
              "internalType": "address",
              "name": "",
              "type": "address"
            }
          ],
          "stateMutability": "view",
          "type": "function"
        },
        {
          "inputs": [
            {
              "internalType": "address",
              "name": "owner",
              "type": "address"
            },
            {
              "internalType": "address",
              "name": "spender",
              "type": "address"
            }
          ],
          "name": "allowance",
          "outputs": [
            {
              "internalType": "uint256",
              "name": "",
              "type": "uint256"
            }
          ],
          "stateMutability": "view",
          "type": "function"
        },
        {
          "inputs": [
            {
              "internalType": "address",
              "name": "spender",
              "type": "address"
            },
            {
              "internalType": "uint256",
              "name": "amount",
              "type": "uint256"
            }
          ],
          "name": "approve",
          "outputs": [
            {
              "internalType": "bool",
              "name": "",
              "type": "bool"
            }
          ],
          "stateMutability": "nonpayable",
          "type": "function"
        },
        {
          "inputs": [
            {
              "internalType": "address",
              "name": "account",
              "type": "address"
            }
          ],
          "name": "balanceOf",
          "outputs": [
            {
              "internalType": "uint256",
              "name": "",
              "type": "uint256"
            }
          ],
          "stateMutability": "view",
          "type": "function"
        },
        {
          "inputs": [],
          "name": "burnFee",
          "outputs": [
            {
              "internalType": "uint256",
              "name": "",
              "type": "uint256"
            }
          ],
          "stateMutability": "view",
          "type": "function"
        },
        {
          "inputs": [],
          "name": "burnTime",
          "outputs": [
            {
              "internalType": "uint256",
              "name": "",
              "type": "uint256"
            }
          ],
          "stateMutability": "view",
          "type": "function"
        },
        {
          "inputs": [
            {
              "internalType": "uint256",
              "name": "amount",
              "type": "uint256"
            }
          ],
          "name": "burnTokens",
          "outputs": [],
          "stateMutability": "nonpayable",
          "type": "function"
        },
        {
          "inputs": [],
          "name": "decimals",
          "outputs": [
            {
              "internalType": "uint8",
              "name": "",
              "type": "uint8"
            }
          ],
          "stateMutability": "view",
          "type": "function"
        },
        {
          "inputs": [
            {
              "internalType": "address",
              "name": "spender",
              "type": "address"
            },
            {
              "internalType": "uint256",
              "name": "subtractedValue",
              "type": "uint256"
            }
          ],
          "name": "decreaseAllowance",
          "outputs": [
            {
              "internalType": "bool",
              "name": "",
              "type": "bool"
            }
          ],
          "stateMutability": "nonpayable",
          "type": "function"
        },
        {
          "inputs": [
            {
              "internalType": "uint8",
              "name": "index",
              "type": "uint8"
            }
          ],
          "name": "distributeTokens",
          "outputs": [],
          "stateMutability": "nonpayable",
          "type": "function"
        },
        {
          "inputs": [
            {
              "internalType": "address",
              "name": "spender",
              "type": "address"
            },
            {
              "internalType": "uint256",
              "name": "addedValue",
              "type": "uint256"
            }
          ],
          "name": "increaseAllowance",
          "outputs": [
            {
              "internalType": "bool",
              "name": "",
              "type": "bool"
            }
          ],
          "stateMutability": "nonpayable",
          "type": "function"
        },
        {
          "inputs": [],
          "name": "intervalIssuance",
          "outputs": [
            {
              "internalType": "uint256",
              "name": "",
              "type": "uint256"
            }
          ],
          "stateMutability": "view",
          "type": "function"
        },
        {
          "inputs": [],
          "name": "issuanceIndex",
          "outputs": [
            {
              "internalType": "uint256",
              "name": "",
              "type": "uint256"
            }
          ],
          "stateMutability": "view",
          "type": "function"
        },
        {
          "inputs": [],
          "name": "issuanceTime",
          "outputs": [
            {
              "internalType": "uint256",
              "name": "",
              "type": "uint256"
            }
          ],
          "stateMutability": "view",
          "type": "function"
        },
        {
          "inputs": [],
          "name": "issueTokens",
          "outputs": [],
          "stateMutability": "nonpayable",
          "type": "function"
        },
        {
          "inputs": [],
          "name": "name",
          "outputs": [
            {
              "internalType": "string",
              "name": "",
              "type": "string"
            }
          ],
          "stateMutability": "view",
          "type": "function"
        },
        {
          "inputs": [],
          "name": "pauseContract",
          "outputs": [],
          "stateMutability": "nonpayable",
          "type": "function"
        },
        {
          "inputs": [],
          "name": "starttime",
          "outputs": [
            {
              "internalType": "uint256",
              "name": "",
              "type": "uint256"
            }
          ],
          "stateMutability": "view",
          "type": "function"
        },
        {
          "inputs": [],
          "name": "status",
          "outputs": [
            {
              "internalType": "bool",
              "name": "",
              "type": "bool"
            }
          ],
          "stateMutability": "view",
          "type": "function"
        },
        {
          "inputs": [],
          "name": "symbol",
          "outputs": [
            {
              "internalType": "string",
              "name": "",
              "type": "string"
            }
          ],
          "stateMutability": "view",
          "type": "function"
        },
        {
          "inputs": [],
          "name": "totalBurnedTokens",
          "outputs": [
            {
              "internalType": "uint256",
              "name": "",
              "type": "uint256"
            }
          ],
          "stateMutability": "view",
          "type": "function"
        },
        {
          "inputs": [],
          "name": "totalSupply",
          "outputs": [
            {
              "internalType": "uint256",
              "name": "",
              "type": "uint256"
            }
          ],
          "stateMutability": "view",
          "type": "function"
        },
        {
          "inputs": [
            {
              "internalType": "address",
              "name": "to",
              "type": "address"
            },
            {
              "internalType": "uint256",
              "name": "amount",
              "type": "uint256"
            }
          ],
          "name": "transfer",
          "outputs": [
            {
              "internalType": "bool",
              "name": "",
              "type": "bool"
            }
          ],
          "stateMutability": "nonpayable",
          "type": "function"
        },
        {
          "inputs": [
            {
              "internalType": "address",
              "name": "from",
              "type": "address"
            },
            {
              "internalType": "address",
              "name": "to",
              "type": "address"
            },
            {
              "internalType": "uint256",
              "name": "amount",
              "type": "uint256"
            }
          ],
          "name": "transferFrom",
          "outputs": [
            {
              "internalType": "bool",
              "name": "",
              "type": "bool"
            }
          ],
          "stateMutability": "nonpayable",
          "type": "function"
        }
      ],
      "devdoc": {
        "kind": "dev",
        "methods": {},
        "version": 1
      },
      "evm": {
        "bytecode": {
          "linkReferences": {},
          "object": "6103206040526108ae608090815261095d60a052610be060c052610cde60e05261109d6101005261119b61012052611541610140526115f761016052611922610180526119d76101a052611ca06101c052611d1f6101e052611f4f61020052611fce610220526121f26102405261224d610260526124126102805261264f6102a0526126976102c0526126e06102e05261271061030052620000a690600090601562000213565b506040805180820190915260078082526656454c414d495360c81b6020909201918252620000d79160039162000269565b506040805180820190915260038082526215915360ea1b6020909201918252620001049160049162000269565b506005805460ff19166012179055600a6009819055600090553480156200012a57600080fd5b506005546200013e9060ff16600a620004b4565b6200014e906311e1a300620004cc565b60075560006006819055600d805460ff19166001179055600e54600b55600a819055600f55604080516008808252610120820190925290602082016101008036833750508151620001a7926008925060200190620002e6565b5060005b60088110156200020c57600060088281548110620001cd57620001cd620004ee565b90600052602060002090602091828204019190066101000a81548160ff0219169083151502179055508080620002039062000504565b915050620001ab565b506200055f565b82805482825590600052602060002090810192821562000257579160200282015b8281111562000257578251829061ffff1690559160200191906001019062000234565b506200026592915062000388565b5090565b828054620002779062000522565b90600052602060002090601f0160209004810192826200029b576000855562000257565b82601f10620002b657805160ff191683800117855562000257565b8280016001018555821562000257579182015b8281111562000257578251825591602001919060010190620002c9565b82805482825590600052602060002090601f01602090048101928215620002575791602002820160005b838211156200034f57835183826101000a81548160ff021916908315150217905550926020019260010160208160000104928301926001030262000310565b80156200037e5782816101000a81549060ff02191690556001016020816000010492830192600103026200034f565b5050620002659291505b5b8082111562000265576000815560010162000389565b634e487b7160e01b600052601160045260246000fd5b600181815b80851115620003f6578160001904821115620003da57620003da6200039f565b80851615620003e857918102915b93841c9390800290620003ba565b509250929050565b6000826200040f57506001620004ae565b816200041e57506000620004ae565b8160018114620004375760028114620004425762000462565b6001915050620004ae565b60ff8411156200045657620004566200039f565b50506001821b620004ae565b5060208310610133831016604e8410600b841016171562000487575081810a620004ae565b620004938383620003b5565b8060001904821115620004aa57620004aa6200039f565b0290505b92915050565b6000620004c560ff841683620003fe565b9392505050565b6000816000190483118215151615620004e957620004e96200039f565b500290565b634e487b7160e01b600052603260045260246000fd5b60006000198214156200051b576200051b6200039f565b5060010190565b600181811c908216806200053757607f821691505b602082108114156200055957634e487b7160e01b600052602260045260246000fd5b50919050565b611734806200056f6000396000f3fe608060405234801561001057600080fd5b506004361061025e5760003560e01c8063677a887011610146578063a4be4b02116100c3578063db0bbaf311610087578063db0bbaf3146104de578063dd62ed3e146104f9578063ebf6cf9b1461050c578063f4dd662614610515578063fce589d814610530578063fe738f67146103db57600080fd5b8063a4be4b02146103c2578063a9059cbb146104af578063af6cb99e14610378578063d1d8523a146104c2578063d2267a6e146104cb57600080fd5b806380c763841161010a57806380c76384146104685780638b8cb114146104705780638da588971461048b57806395d89b4114610494578063a457c2d71461049c57600080fd5b8063677a8870146103e35780636d1b229d146103fe57806370a08231146104115780637ba06d781461043a5780637fc51ee11461045557600080fd5b8063313ce567116101df5780635084ae15116101a35780635084ae15146103a757806350d1197e146103c2578063555f323a146103ca57806356b05a2a1461037857806360ab5852146103d3578063676d0e8a146103db57600080fd5b8063313ce56714610363578063384d4241146103785780633950935114610380578063439766ce146103935780634b18e6421461039d57600080fd5b806318160ddd1161022657806318160ddd1461030d578063200d2ed21461031f57806323b872dd1461032c57806327a5331e1461033f5780632bdcdb781461035a57600080fd5b806306fdde0314610263578063087140d414610281578063095ea7b3146102b457806309c03d52146102d757806311ffeaf2146102f2575b600080fd5b61026b610539565b604051610278919061143b565b60405180910390f35b61029c736742e82826f03f69b46d86ff2afaf870f9a188c681565b6040516001600160a01b039091168152602001610278565b6102c76102c23660046114ac565b6105cb565b6040519015158152602001610278565b61029c7344a7cc9762c267180e0e09d56a84d70629258e2981565b61029c73a9ed9c85a7cc10ed3cb439934a25d737c6b8d00681565b6006545b604051908152602001610278565b600d546102c79060ff1681565b6102c761033a3660046114d6565b61060f565b61029c73d0bdc14f6457511655e2290c56fdad5a3f96ddea81565b610311600a5481565b60055460405160ff9091168152602001610278565b610311600581565b6102c761038e3660046114ac565b610656565b61039b6106b7565b005b61031162278d0081565b61029c732f609c920c78535bf3ae62b92ffb131cb37b03eb81565b610311601481565b610311600f5481565b61039b61073c565b610311600a81565b61029c737de8e2b7f921ba243454b30406076a89fdf7c34381565b61039b61040c366004611512565b6109ee565b61031161041f36600461152b565b6001600160a01b031660009081526001602052604090205490565b61029c735b58e5df395f87ce0cd2a677b9a48cbb7cb3a84381565b610311610463366004611512565b610b25565b610311601981565b61029c731fa257b5aa21e21bd6fa0f421638661b8a42290281565b610311600e5481565b61026b610b46565b6102c76104aa3660046114ac565b610b55565b6102c76104bd3660046114ac565b610c0b565b610311600b5481565b61039b6104d936600461154d565b610c3c565b61029c7313200c0fac543e5a7f85791e65bea038fe6ee25d81565b610311610507366004611570565b610f2f565b610311600c5481565b61029c73333431cdae737cd1bf6ad26c22e443700710d81981565b61031160095481565b606060038054610548906115a3565b80601f0160208091040260200160405190810160405280929190818152602001828054610574906115a3565b80156105c15780601f10610596576101008083540402835291602001916105c1565b820191906000526020600020905b8154815290600101906020018083116105a457829003601f168201915b5050505050905090565b600d5460009060ff166105f95760405162461bcd60e51b81526004016105f0906115de565b60405180910390fd5b33610605818585610f80565b5060019392505050565b600d5460009060ff166106345760405162461bcd60e51b81526004016105f0906115de565b336106408582856110a9565b61064b85858561111d565b506001949350505050565b600d5460009060ff1661067b5760405162461bcd60e51b81526004016105f0906115de565b3360008181526002602090815260408083206001600160a01b038816845290915290205461060590829086906106b290879061162b565b610f80565b337313200c0fac543e5a7f85791e65bea038fe6ee25d146107305760405162461bcd60e51b815260206004820152602d60248201527f56454c414d49533a2063616c6c65722069736e27742073746f70706572206f6660448201526c081d1a194818dbdb9d1c9858dd609a1b60648201526084016105f0565b600d805460ff19169055565b33736742e82826f03f69b46d86ff2afaf870f9a188c61461076f5760405162461bcd60e51b81526004016105f090611643565b600d5460ff166107915760405162461bcd60e51b81526004016105f0906115de565b6014600a5411156107e45760405162461bcd60e51b815260206004820152601f60248201527f56454c414d49533a20746f6b656e206973737561636520697320656e6465640060448201526064016105f0565b600b544210156108455760405162461bcd60e51b815260206004820152602660248201527f56454c414d49533a2069742069736e27742074686520697373756163652074696044820152656d65206e6f7760d01b60648201526084016105f0565b600a54600090156108c75761271060006001600a546108649190611690565b81548110610874576108746116a7565b90600052602060002001546000600a5481548110610894576108946116a7565b90600052602060002001546108a99190611690565b6007546108b691906116bd565b6108c091906116dc565b9050610904565b6127106000600a54815481106108df576108df6116a7565b90600052602060002001546007546108f791906116bd565b61090191906116dc565b90505b736742e82826f03f69b46d86ff2afaf870f9a188c6600090815260016020527fee8aaf4e0f85ec16b756f8a07b01337af9540e49c04a5b84e30b17212fdbc088805483929061095490849061162b565b92505081905550806006600082825461096d919061162b565b9250508190555062278d00600b6000828254610989919061162b565b9091555050600a5461099c90600161162b565b600a55604051818152736742e82826f03f69b46d86ff2afaf870f9a188c6906000907fddf252ad1be2c89b69c2b068fc378daa952ba7f163c4a11628f55a4df523b3ef9060200160405180910390a350565b33736742e82826f03f69b46d86ff2afaf870f9a188c614610a215760405162461bcd60e51b81526004016105f090611643565b600d5460ff16610a435760405162461bcd60e51b81526004016105f0906115de565b6000606460095483610a5591906116bd565b610a5f91906116dc565b9050600060646007546032610a7491906116bd565b610a7e91906116dc565b905080600f5410610add5760405162461bcd60e51b815260206004820152602360248201527f56454c414d49533a20746f6b656e73206861766520616c7265616479206275726044820152621b995960ea1b60648201526084016105f0565b8082600f54610aec919061162b565b1115610b0257600f54610aff9082611690565b91505b610b20736742e82826f03f69b46d86ff2afaf870f9a188c6836112f2565b505050565b60008181548110610b3557600080fd5b600091825260209091200154905081565b606060048054610548906115a3565b600d5460009060ff16610b7a5760405162461bcd60e51b81526004016105f0906115de565b3360008181526002602090815260408083206001600160a01b038816845290915290205483811015610bfe5760405162461bcd60e51b815260206004820152602760248201527f56454c414d49533a2064656372656173656420616c6c6f77616e63652062656c6044820152666f77207a65726f60c81b60648201526084016105f0565b61064b8286868403610f80565b600d5460009060ff16610c305760405162461bcd60e51b81526004016105f0906115de565b3361060581858561111d565b33736742e82826f03f69b46d86ff2afaf870f9a188c614610c6f5760405162461bcd60e51b81526004016105f090611643565b600d5460ff16610c915760405162461bcd60e51b81526004016105f0906115de565b60088160ff1610610cf05760405162461bcd60e51b815260206004820152602360248201527f56454c414d49533a20696e646578206d757374206265206c657373207468616e604482015262101c1760e91b60648201526084016105f0565b60088160ff1681548110610d0657610d066116a7565b90600052602060002090602091828204019190069054906101000a900460ff1615610d995760405162461bcd60e51b815260206004820152603760248201527f56454c414d49533a20646973747269627574696f6e207769746820746869732060448201527f696e6465782068616420616c726561647920646f6e652e00000000000000000060648201526084016105f0565b60008060ff8316610dc35750732f609c920c78535bf3ae62b92ffb131cb37b03eb90506005610eec565b8260ff1660011415610dee575073d0bdc14f6457511655e2290c56fdad5a3f96ddea9050600a610eec565b8260ff1660021415610e195750731fa257b5aa21e21bd6fa0f421638661b8a42290290506005610eec565b8260ff1660031415610e445750737de8e2b7f921ba243454b30406076a89fdf7c34390506005610eec565b8260ff1660041415610e6f5750735b58e5df395f87ce0cd2a677b9a48cbb7cb3a8439050600a610eec565b8260ff1660051415610e9a575073333431cdae737cd1bf6ad26c22e443700710d81990506014610eec565b8260ff1660061415610ec5575073a9ed9c85a7cc10ed3cb439934a25d737c6b8d00690506019610eec565b8260ff1660071415610eec57507344a7cc9762c267180e0e09d56a84d70629258e29905060145b6000606482600754610efe91906116bd565b610f0891906116dc565b9050610f29736742e82826f03f69b46d86ff2afaf870f9a188c6848361111d565b50505050565b600d5460009060ff16610f545760405162461bcd60e51b81526004016105f0906115de565b506001600160a01b03918216600090815260026020908152604080832093909416825291909152205490565b6001600160a01b038316610fe55760405162461bcd60e51b815260206004820152602660248201527f56454c414d49533a20617070726f76652066726f6d20746865207a65726f206160448201526564647265737360d01b60648201526084016105f0565b6001600160a01b0382166110475760405162461bcd60e51b8152602060048201526024808201527f56454c414d49533a20617070726f766520746f20746865207a65726f206164646044820152637265737360e01b60648201526084016105f0565b6001600160a01b0383811660008181526002602090815260408083209487168084529482529182902085905590518481527f8c5be1e5ebec7d5bd14f71427d1e84f3dd0314c0f7b2291e5b200ac8c7c3b92591015b60405180910390a3505050565b60006110b58484610f2f565b90506000198114610f2957818110156111105760405162461bcd60e51b815260206004820152601f60248201527f56454c414d49533a20696e73756666696369656e7420616c6c6f77616e63650060448201526064016105f0565b610f298484848403610f80565b6001600160a01b0383166111835760405162461bcd60e51b815260206004820152602760248201527f56454c414d49533a207472616e736665722066726f6d20746865207a65726f206044820152666164647265737360c81b60648201526084016105f0565b6001600160a01b0382166111e75760405162461bcd60e51b815260206004820152602560248201527f56454c414d49533a207472616e7366657220746f20746865207a65726f206164604482015264647265737360d81b60648201526084016105f0565b6001600160a01b038316600090815260016020526040902054818110156112615760405162461bcd60e51b815260206004820152602860248201527f56454c414d49533a207472616e7366657220616d6f756e7420657863656564736044820152672062616c616e636560c01b60648201526084016105f0565b6001600160a01b0380851660009081526001602052604080822085850390559185168152908120805484929061129890849061162b565b92505081905550826001600160a01b0316846001600160a01b03167fddf252ad1be2c89b69c2b068fc378daa952ba7f163c4a11628f55a4df523b3ef846040516112e491815260200190565b60405180910390a350505050565b6001600160a01b0382166113545760405162461bcd60e51b815260206004820152602360248201527f56454c414d49533a206275726e2066726f6d20746865207a65726f206164647260448201526265737360e81b60648201526084016105f0565b6001600160a01b038216600090815260016020526040902054818110156113c95760405162461bcd60e51b8152602060048201526024808201527f56454c414d49533a206275726e20616d6f756e7420657863656564732062616c604482015263616e636560e01b60648201526084016105f0565b6001600160a01b03831660009081526001602052604081208383039055600680548492906113f8908490611690565b90915550506040518281526000906001600160a01b038516907fddf252ad1be2c89b69c2b068fc378daa952ba7f163c4a11628f55a4df523b3ef9060200161109c565b600060208083528351808285015260005b818110156114685785810183015185820160400152820161144c565b8181111561147a576000604083870101525b50601f01601f1916929092016040019392505050565b80356001600160a01b03811681146114a757600080fd5b919050565b600080604083850312156114bf57600080fd5b6114c883611490565b946020939093013593505050565b6000806000606084860312156114eb57600080fd5b6114f484611490565b925061150260208501611490565b9150604084013590509250925092565b60006020828403121561152457600080fd5b5035919050565b60006020828403121561153d57600080fd5b61154682611490565b9392505050565b60006020828403121561155f57600080fd5b813560ff8116811461154657600080fd5b6000806040838503121561158357600080fd5b61158c83611490565b915061159a60208401611490565b90509250929050565b600181811c908216806115b757607f821691505b602082108114156115d857634e487b7160e01b600052602260045260246000fd5b50919050565b6020808252601c908201527f56454c414d49533a20636f6e74726163742069732073746f7070656400000000604082015260600190565b634e487b7160e01b600052601160045260246000fd5b6000821982111561163e5761163e611615565b500190565b6020808252602d908201527f56454c414d49533a2063616c6c65722069736e2774206d616e61676572206f6660408201526c081d1a194818dbdb9d1c9858dd609a1b606082015260800190565b6000828210156116a2576116a2611615565b500390565b634e487b7160e01b600052603260045260246000fd5b60008160001904831182151516156116d7576116d7611615565b500290565b6000826116f957634e487b7160e01b600052601260045260246000fd5b50049056fea264697066735822122025b768c19558084e6bc281dc5da0639c1d272c97cde10bc2eea5a859e75dea7864736f6c634300080a0033",
          "opcodes": "PUSH2 0x320 PUSH1 0x40 MSTORE PUSH2 0x8AE PUSH1 0x80 SWAP1 DUP2 MSTORE PUSH2 0x95D PUSH1 0xA0 MSTORE PUSH2 0xBE0 PUSH1 0xC0 MSTORE PUSH2 0xCDE PUSH1 0xE0 MSTORE PUSH2 0x109D PUSH2 0x100 MSTORE PUSH2 0x119B PUSH2 0x120 MSTORE PUSH2 0x1541 PUSH2 0x140 MSTORE PUSH2 0x15F7 PUSH2 0x160 MSTORE PUSH2 0x1922 PUSH2 0x180 MSTORE PUSH2 0x19D7 PUSH2 0x1A0 MSTORE PUSH2 0x1CA0 PUSH2 0x1C0 MSTORE PUSH2 0x1D1F PUSH2 0x1E0 MSTORE PUSH2 0x1F4F PUSH2 0x200 MSTORE PUSH2 0x1FCE PUSH2 0x220 MSTORE PUSH2 0x21F2 PUSH2 0x240 MSTORE PUSH2 0x224D PUSH2 0x260 MSTORE PUSH2 0x2412 PUSH2 0x280 MSTORE PUSH2 0x264F PUSH2 0x2A0 MSTORE PUSH2 0x2697 PUSH2 0x2C0 MSTORE PUSH2 0x26E0 PUSH2 0x2E0 MSTORE PUSH2 0x2710 PUSH2 0x300 MSTORE PUSH3 0xA6 SWAP1 PUSH1 0x0 SWAP1 PUSH1 0x15 PUSH3 0x213 JUMP JUMPDEST POP PUSH1 0x40 DUP1 MLOAD DUP1 DUP3 ADD SWAP1 SWAP2 MSTORE PUSH1 0x7 DUP1 DUP3 MSTORE PUSH7 0x56454C414D4953 PUSH1 0xC8 SHL PUSH1 0x20 SWAP1 SWAP3 ADD SWAP2 DUP3 MSTORE PUSH3 0xD7 SWAP2 PUSH1 0x3 SWAP2 PUSH3 0x269 JUMP JUMPDEST POP PUSH1 0x40 DUP1 MLOAD DUP1 DUP3 ADD SWAP1 SWAP2 MSTORE PUSH1 0x3 DUP1 DUP3 MSTORE PUSH3 0x159153 PUSH1 0xEA SHL PUSH1 0x20 SWAP1 SWAP3 ADD SWAP2 DUP3 MSTORE PUSH3 0x104 SWAP2 PUSH1 0x4 SWAP2 PUSH3 0x269 JUMP JUMPDEST POP PUSH1 0x5 DUP1 SLOAD PUSH1 0xFF NOT AND PUSH1 0x12 OR SWAP1 SSTORE PUSH1 0xA PUSH1 0x9 DUP2 SWAP1 SSTORE PUSH1 0x0 SWAP1 SSTORE CALLVALUE DUP1 ISZERO PUSH3 0x12A JUMPI PUSH1 0x0 DUP1 REVERT JUMPDEST POP PUSH1 0x5 SLOAD PUSH3 0x13E SWAP1 PUSH1 0xFF AND PUSH1 0xA PUSH3 0x4B4 JUMP JUMPDEST PUSH3 0x14E SWAP1 PUSH4 0x11E1A300 PUSH3 0x4CC JUMP JUMPDEST PUSH1 0x7 SSTORE PUSH1 0x0 PUSH1 0x6 DUP2 SWAP1 SSTORE PUSH1 0xD DUP1 SLOAD PUSH1 0xFF NOT AND PUSH1 0x1 OR SWAP1 SSTORE PUSH1 0xE SLOAD PUSH1 0xB SSTORE PUSH1 0xA DUP2 SWAP1 SSTORE PUSH1 0xF SSTORE PUSH1 0x40 DUP1 MLOAD PUSH1 0x8 DUP1 DUP3 MSTORE PUSH2 0x120 DUP3 ADD SWAP1 SWAP3 MSTORE SWAP1 PUSH1 0x20 DUP3 ADD PUSH2 0x100 DUP1 CALLDATASIZE DUP4 CALLDATACOPY POP POP DUP2 MLOAD PUSH3 0x1A7 SWAP3 PUSH1 0x8 SWAP3 POP PUSH1 0x20 ADD SWAP1 PUSH3 0x2E6 JUMP JUMPDEST POP PUSH1 0x0 JUMPDEST PUSH1 0x8 DUP2 LT ISZERO PUSH3 0x20C JUMPI PUSH1 0x0 PUSH1 0x8 DUP3 DUP2 SLOAD DUP2 LT PUSH3 0x1CD JUMPI PUSH3 0x1CD PUSH3 0x4EE JUMP JUMPDEST SWAP1 PUSH1 0x0 MSTORE PUSH1 0x20 PUSH1 0x0 KECCAK256 SWAP1 PUSH1 0x20 SWAP2 DUP3 DUP3 DIV ADD SWAP2 SWAP1 MOD PUSH2 0x100 EXP DUP2 SLOAD DUP2 PUSH1 0xFF MUL NOT AND SWAP1 DUP4 ISZERO ISZERO MUL OR SWAP1 SSTORE POP DUP1 DUP1 PUSH3 0x203 SWAP1 PUSH3 0x504 JUMP JUMPDEST SWAP2 POP POP PUSH3 0x1AB JUMP JUMPDEST POP PUSH3 0x55F JUMP JUMPDEST DUP3 DUP1 SLOAD DUP3 DUP3 SSTORE SWAP1 PUSH1 0x0 MSTORE PUSH1 0x20 PUSH1 0x0 KECCAK256 SWAP1 DUP2 ADD SWAP3 DUP3 ISZERO PUSH3 0x257 JUMPI SWAP2 PUSH1 0x20 MUL DUP3 ADD JUMPDEST DUP3 DUP2 GT ISZERO PUSH3 0x257 JUMPI DUP3 MLOAD DUP3 SWAP1 PUSH2 0xFFFF AND SWAP1 SSTORE SWAP2 PUSH1 0x20 ADD SWAP2 SWAP1 PUSH1 0x1 ADD SWAP1 PUSH3 0x234 JUMP JUMPDEST POP PUSH3 0x265 SWAP3 SWAP2 POP PUSH3 0x388 JUMP JUMPDEST POP SWAP1 JUMP JUMPDEST DUP3 DUP1 SLOAD PUSH3 0x277 SWAP1 PUSH3 0x522 JUMP JUMPDEST SWAP1 PUSH1 0x0 MSTORE PUSH1 0x20 PUSH1 0x0 KECCAK256 SWAP1 PUSH1 0x1F ADD PUSH1 0x20 SWAP1 DIV DUP2 ADD SWAP3 DUP3 PUSH3 0x29B JUMPI PUSH1 0x0 DUP6 SSTORE PUSH3 0x257 JUMP JUMPDEST DUP3 PUSH1 0x1F LT PUSH3 0x2B6 JUMPI DUP1 MLOAD PUSH1 0xFF NOT AND DUP4 DUP1 ADD OR DUP6 SSTORE PUSH3 0x257 JUMP JUMPDEST DUP3 DUP1 ADD PUSH1 0x1 ADD DUP6 SSTORE DUP3 ISZERO PUSH3 0x257 JUMPI SWAP2 DUP3 ADD JUMPDEST DUP3 DUP2 GT ISZERO PUSH3 0x257 JUMPI DUP3 MLOAD DUP3 SSTORE SWAP2 PUSH1 0x20 ADD SWAP2 SWAP1 PUSH1 0x1 ADD SWAP1 PUSH3 0x2C9 JUMP JUMPDEST DUP3 DUP1 SLOAD DUP3 DUP3 SSTORE SWAP1 PUSH1 0x0 MSTORE PUSH1 0x20 PUSH1 0x0 KECCAK256 SWAP1 PUSH1 0x1F ADD PUSH1 0x20 SWAP1 DIV DUP2 ADD SWAP3 DUP3 ISZERO PUSH3 0x257 JUMPI SWAP2 PUSH1 0x20 MUL DUP3 ADD PUSH1 0x0 JUMPDEST DUP4 DUP3 GT ISZERO PUSH3 0x34F JUMPI DUP4 MLOAD DUP4 DUP3 PUSH2 0x100 EXP DUP2 SLOAD DUP2 PUSH1 0xFF MUL NOT AND SWAP1 DUP4 ISZERO ISZERO MUL OR SWAP1 SSTORE POP SWAP3 PUSH1 0x20 ADD SWAP3 PUSH1 0x1 ADD PUSH1 0x20 DUP2 PUSH1 0x0 ADD DIV SWAP3 DUP4 ADD SWAP3 PUSH1 0x1 SUB MUL PUSH3 0x310 JUMP JUMPDEST DUP1 ISZERO PUSH3 0x37E JUMPI DUP3 DUP2 PUSH2 0x100 EXP DUP2 SLOAD SWAP1 PUSH1 0xFF MUL NOT AND SWAP1 SSTORE PUSH1 0x1 ADD PUSH1 0x20 DUP2 PUSH1 0x0 ADD DIV SWAP3 DUP4 ADD SWAP3 PUSH1 0x1 SUB MUL PUSH3 0x34F JUMP JUMPDEST POP POP PUSH3 0x265 SWAP3 SWAP2 POP JUMPDEST JUMPDEST DUP1 DUP3 GT ISZERO PUSH3 0x265 JUMPI PUSH1 0x0 DUP2 SSTORE PUSH1 0x1 ADD PUSH3 0x389 JUMP JUMPDEST PUSH4 0x4E487B71 PUSH1 0xE0 SHL PUSH1 0x0 MSTORE PUSH1 0x11 PUSH1 0x4 MSTORE PUSH1 0x24 PUSH1 0x0 REVERT JUMPDEST PUSH1 0x1 DUP2 DUP2 JUMPDEST DUP1 DUP6 GT ISZERO PUSH3 0x3F6 JUMPI DUP2 PUSH1 0x0 NOT DIV DUP3 GT ISZERO PUSH3 0x3DA JUMPI PUSH3 0x3DA PUSH3 0x39F JUMP JUMPDEST DUP1 DUP6 AND ISZERO PUSH3 0x3E8 JUMPI SWAP2 DUP2 MUL SWAP2 JUMPDEST SWAP4 DUP5 SHR SWAP4 SWAP1 DUP1 MUL SWAP1 PUSH3 0x3BA JUMP JUMPDEST POP SWAP3 POP SWAP3 SWAP1 POP JUMP JUMPDEST PUSH1 0x0 DUP3 PUSH3 0x40F JUMPI POP PUSH1 0x1 PUSH3 0x4AE JUMP JUMPDEST DUP2 PUSH3 0x41E JUMPI POP PUSH1 0x0 PUSH3 0x4AE JUMP JUMPDEST DUP2 PUSH1 0x1 DUP2 EQ PUSH3 0x437 JUMPI PUSH1 0x2 DUP2 EQ PUSH3 0x442 JUMPI PUSH3 0x462 JUMP JUMPDEST PUSH1 0x1 SWAP2 POP POP PUSH3 0x4AE JUMP JUMPDEST PUSH1 0xFF DUP5 GT ISZERO PUSH3 0x456 JUMPI PUSH3 0x456 PUSH3 0x39F JUMP JUMPDEST POP POP PUSH1 0x1 DUP3 SHL PUSH3 0x4AE JUMP JUMPDEST POP PUSH1 0x20 DUP4 LT PUSH2 0x133 DUP4 LT AND PUSH1 0x4E DUP5 LT PUSH1 0xB DUP5 LT AND OR ISZERO PUSH3 0x487 JUMPI POP DUP2 DUP2 EXP PUSH3 0x4AE JUMP JUMPDEST PUSH3 0x493 DUP4 DUP4 PUSH3 0x3B5 JUMP JUMPDEST DUP1 PUSH1 0x0 NOT DIV DUP3 GT ISZERO PUSH3 0x4AA JUMPI PUSH3 0x4AA PUSH3 0x39F JUMP JUMPDEST MUL SWAP1 POP JUMPDEST SWAP3 SWAP2 POP POP JUMP JUMPDEST PUSH1 0x0 PUSH3 0x4C5 PUSH1 0xFF DUP5 AND DUP4 PUSH3 0x3FE JUMP JUMPDEST SWAP4 SWAP3 POP POP POP JUMP JUMPDEST PUSH1 0x0 DUP2 PUSH1 0x0 NOT DIV DUP4 GT DUP3 ISZERO ISZERO AND ISZERO PUSH3 0x4E9 JUMPI PUSH3 0x4E9 PUSH3 0x39F JUMP JUMPDEST POP MUL SWAP1 JUMP JUMPDEST PUSH4 0x4E487B71 PUSH1 0xE0 SHL PUSH1 0x0 MSTORE PUSH1 0x32 PUSH1 0x4 MSTORE PUSH1 0x24 PUSH1 0x0 REVERT JUMPDEST PUSH1 0x0 PUSH1 0x0 NOT DUP3 EQ ISZERO PUSH3 0x51B JUMPI PUSH3 0x51B PUSH3 0x39F JUMP JUMPDEST POP PUSH1 0x1 ADD SWAP1 JUMP JUMPDEST PUSH1 0x1 DUP2 DUP2 SHR SWAP1 DUP3 AND DUP1 PUSH3 0x537 JUMPI PUSH1 0x7F DUP3 AND SWAP2 POP JUMPDEST PUSH1 0x20 DUP3 LT DUP2 EQ ISZERO PUSH3 0x559 JUMPI PUSH4 0x4E487B71 PUSH1 0xE0 SHL PUSH1 0x0 MSTORE PUSH1 0x22 PUSH1 0x4 MSTORE PUSH1 0x24 PUSH1 0x0 REVERT JUMPDEST POP SWAP2 SWAP1 POP JUMP JUMPDEST PUSH2 0x1734 DUP1 PUSH3 0x56F PUSH1 0x0 CODECOPY PUSH1 0x0 RETURN INVALID PUSH1 0x80 PUSH1 0x40 MSTORE CALLVALUE DUP1 ISZERO PUSH2 0x10 JUMPI PUSH1 0x0 DUP1 REVERT JUMPDEST POP PUSH1 0x4 CALLDATASIZE LT PUSH2 0x25E JUMPI PUSH1 0x0 CALLDATALOAD PUSH1 0xE0 SHR DUP1 PUSH4 0x677A8870 GT PUSH2 0x146 JUMPI DUP1 PUSH4 0xA4BE4B02 GT PUSH2 0xC3 JUMPI DUP1 PUSH4 0xDB0BBAF3 GT PUSH2 0x87 JUMPI DUP1 PUSH4 0xDB0BBAF3 EQ PUSH2 0x4DE JUMPI DUP1 PUSH4 0xDD62ED3E EQ PUSH2 0x4F9 JUMPI DUP1 PUSH4 0xEBF6CF9B EQ PUSH2 0x50C JUMPI DUP1 PUSH4 0xF4DD6626 EQ PUSH2 0x515 JUMPI DUP1 PUSH4 0xFCE589D8 EQ PUSH2 0x530 JUMPI DUP1 PUSH4 0xFE738F67 EQ PUSH2 0x3DB JUMPI PUSH1 0x0 DUP1 REVERT JUMPDEST DUP1 PUSH4 0xA4BE4B02 EQ PUSH2 0x3C2 JUMPI DUP1 PUSH4 0xA9059CBB EQ PUSH2 0x4AF JUMPI DUP1 PUSH4 0xAF6CB99E EQ PUSH2 0x378 JUMPI DUP1 PUSH4 0xD1D8523A EQ PUSH2 0x4C2 JUMPI DUP1 PUSH4 0xD2267A6E EQ PUSH2 0x4CB JUMPI PUSH1 0x0 DUP1 REVERT JUMPDEST DUP1 PUSH4 0x80C76384 GT PUSH2 0x10A JUMPI DUP1 PUSH4 0x80C76384 EQ PUSH2 0x468 JUMPI DUP1 PUSH4 0x8B8CB114 EQ PUSH2 0x470 JUMPI DUP1 PUSH4 0x8DA58897 EQ PUSH2 0x48B JUMPI DUP1 PUSH4 0x95D89B41 EQ PUSH2 0x494 JUMPI DUP1 PUSH4 0xA457C2D7 EQ PUSH2 0x49C JUMPI PUSH1 0x0 DUP1 REVERT JUMPDEST DUP1 PUSH4 0x677A8870 EQ PUSH2 0x3E3 JUMPI DUP1 PUSH4 0x6D1B229D EQ PUSH2 0x3FE JUMPI DUP1 PUSH4 0x70A08231 EQ PUSH2 0x411 JUMPI DUP1 PUSH4 0x7BA06D78 EQ PUSH2 0x43A JUMPI DUP1 PUSH4 0x7FC51EE1 EQ PUSH2 0x455 JUMPI PUSH1 0x0 DUP1 REVERT JUMPDEST DUP1 PUSH4 0x313CE567 GT PUSH2 0x1DF JUMPI DUP1 PUSH4 0x5084AE15 GT PUSH2 0x1A3 JUMPI DUP1 PUSH4 0x5084AE15 EQ PUSH2 0x3A7 JUMPI DUP1 PUSH4 0x50D1197E EQ PUSH2 0x3C2 JUMPI DUP1 PUSH4 0x555F323A EQ PUSH2 0x3CA JUMPI DUP1 PUSH4 0x56B05A2A EQ PUSH2 0x378 JUMPI DUP1 PUSH4 0x60AB5852 EQ PUSH2 0x3D3 JUMPI DUP1 PUSH4 0x676D0E8A EQ PUSH2 0x3DB JUMPI PUSH1 0x0 DUP1 REVERT JUMPDEST DUP1 PUSH4 0x313CE567 EQ PUSH2 0x363 JUMPI DUP1 PUSH4 0x384D4241 EQ PUSH2 0x378 JUMPI DUP1 PUSH4 0x39509351 EQ PUSH2 0x380 JUMPI DUP1 PUSH4 0x439766CE EQ PUSH2 0x393 JUMPI DUP1 PUSH4 0x4B18E642 EQ PUSH2 0x39D JUMPI PUSH1 0x0 DUP1 REVERT JUMPDEST DUP1 PUSH4 0x18160DDD GT PUSH2 0x226 JUMPI DUP1 PUSH4 0x18160DDD EQ PUSH2 0x30D JUMPI DUP1 PUSH4 0x200D2ED2 EQ PUSH2 0x31F JUMPI DUP1 PUSH4 0x23B872DD EQ PUSH2 0x32C JUMPI DUP1 PUSH4 0x27A5331E EQ PUSH2 0x33F JUMPI DUP1 PUSH4 0x2BDCDB78 EQ PUSH2 0x35A JUMPI PUSH1 0x0 DUP1 REVERT JUMPDEST DUP1 PUSH4 0x6FDDE03 EQ PUSH2 0x263 JUMPI DUP1 PUSH4 0x87140D4 EQ PUSH2 0x281 JUMPI DUP1 PUSH4 0x95EA7B3 EQ PUSH2 0x2B4 JUMPI DUP1 PUSH4 0x9C03D52 EQ PUSH2 0x2D7 JUMPI DUP1 PUSH4 0x11FFEAF2 EQ PUSH2 0x2F2 JUMPI JUMPDEST PUSH1 0x0 DUP1 REVERT JUMPDEST PUSH2 0x26B PUSH2 0x539 JUMP JUMPDEST PUSH1 0x40 MLOAD PUSH2 0x278 SWAP2 SWAP1 PUSH2 0x143B JUMP JUMPDEST PUSH1 0x40 MLOAD DUP1 SWAP2 SUB SWAP1 RETURN JUMPDEST PUSH2 0x29C PUSH20 0x6742E82826F03F69B46D86FF2AFAF870F9A188C6 DUP2 JUMP JUMPDEST PUSH1 0x40 MLOAD PUSH1 0x1 PUSH1 0x1 PUSH1 0xA0 SHL SUB SWAP1 SWAP2 AND DUP2 MSTORE PUSH1 0x20 ADD PUSH2 0x278 JUMP JUMPDEST PUSH2 0x2C7 PUSH2 0x2C2 CALLDATASIZE PUSH1 0x4 PUSH2 0x14AC JUMP JUMPDEST PUSH2 0x5CB JUMP JUMPDEST PUSH1 0x40 MLOAD SWAP1 ISZERO ISZERO DUP2 MSTORE PUSH1 0x20 ADD PUSH2 0x278 JUMP JUMPDEST PUSH2 0x29C PUSH20 0x44A7CC9762C267180E0E09D56A84D70629258E29 DUP2 JUMP JUMPDEST PUSH2 0x29C PUSH20 0xA9ED9C85A7CC10ED3CB439934A25D737C6B8D006 DUP2 JUMP JUMPDEST PUSH1 0x6 SLOAD JUMPDEST PUSH1 0x40 MLOAD SWAP1 DUP2 MSTORE PUSH1 0x20 ADD PUSH2 0x278 JUMP JUMPDEST PUSH1 0xD SLOAD PUSH2 0x2C7 SWAP1 PUSH1 0xFF AND DUP2 JUMP JUMPDEST PUSH2 0x2C7 PUSH2 0x33A CALLDATASIZE PUSH1 0x4 PUSH2 0x14D6 JUMP JUMPDEST PUSH2 0x60F JUMP JUMPDEST PUSH2 0x29C PUSH20 0xD0BDC14F6457511655E2290C56FDAD5A3F96DDEA DUP2 JUMP JUMPDEST PUSH2 0x311 PUSH1 0xA SLOAD DUP2 JUMP JUMPDEST PUSH1 0x5 SLOAD PUSH1 0x40 MLOAD PUSH1 0xFF SWAP1 SWAP2 AND DUP2 MSTORE PUSH1 0x20 ADD PUSH2 0x278 JUMP JUMPDEST PUSH2 0x311 PUSH1 0x5 DUP2 JUMP JUMPDEST PUSH2 0x2C7 PUSH2 0x38E CALLDATASIZE PUSH1 0x4 PUSH2 0x14AC JUMP JUMPDEST PUSH2 0x656 JUMP JUMPDEST PUSH2 0x39B PUSH2 0x6B7 JUMP JUMPDEST STOP JUMPDEST PUSH2 0x311 PUSH3 0x278D00 DUP2 JUMP JUMPDEST PUSH2 0x29C PUSH20 0x2F609C920C78535BF3AE62B92FFB131CB37B03EB DUP2 JUMP JUMPDEST PUSH2 0x311 PUSH1 0x14 DUP2 JUMP JUMPDEST PUSH2 0x311 PUSH1 0xF SLOAD DUP2 JUMP JUMPDEST PUSH2 0x39B PUSH2 0x73C JUMP JUMPDEST PUSH2 0x311 PUSH1 0xA DUP2 JUMP JUMPDEST PUSH2 0x29C PUSH20 0x7DE8E2B7F921BA243454B30406076A89FDF7C343 DUP2 JUMP JUMPDEST PUSH2 0x39B PUSH2 0x40C CALLDATASIZE PUSH1 0x4 PUSH2 0x1512 JUMP JUMPDEST PUSH2 0x9EE JUMP JUMPDEST PUSH2 0x311 PUSH2 0x41F CALLDATASIZE PUSH1 0x4 PUSH2 0x152B JUMP JUMPDEST PUSH1 0x1 PUSH1 0x1 PUSH1 0xA0 SHL SUB AND PUSH1 0x0 SWAP1 DUP2 MSTORE PUSH1 0x1 PUSH1 0x20 MSTORE PUSH1 0x40 SWAP1 KECCAK256 SLOAD SWAP1 JUMP JUMPDEST PUSH2 0x29C PUSH20 0x5B58E5DF395F87CE0CD2A677B9A48CBB7CB3A843 DUP2 JUMP JUMPDEST PUSH2 0x311 PUSH2 0x463 CALLDATASIZE PUSH1 0x4 PUSH2 0x1512 JUMP JUMPDEST PUSH2 0xB25 JUMP JUMPDEST PUSH2 0x311 PUSH1 0x19 DUP2 JUMP JUMPDEST PUSH2 0x29C PUSH20 0x1FA257B5AA21E21BD6FA0F421638661B8A422902 DUP2 JUMP JUMPDEST PUSH2 0x311 PUSH1 0xE SLOAD DUP2 JUMP JUMPDEST PUSH2 0x26B PUSH2 0xB46 JUMP JUMPDEST PUSH2 0x2C7 PUSH2 0x4AA CALLDATASIZE PUSH1 0x4 PUSH2 0x14AC JUMP JUMPDEST PUSH2 0xB55 JUMP JUMPDEST PUSH2 0x2C7 PUSH2 0x4BD CALLDATASIZE PUSH1 0x4 PUSH2 0x14AC JUMP JUMPDEST PUSH2 0xC0B JUMP JUMPDEST PUSH2 0x311 PUSH1 0xB SLOAD DUP2 JUMP JUMPDEST PUSH2 0x39B PUSH2 0x4D9 CALLDATASIZE PUSH1 0x4 PUSH2 0x154D JUMP JUMPDEST PUSH2 0xC3C JUMP JUMPDEST PUSH2 0x29C PUSH20 0x13200C0FAC543E5A7F85791E65BEA038FE6EE25D DUP2 JUMP JUMPDEST PUSH2 0x311 PUSH2 0x507 CALLDATASIZE PUSH1 0x4 PUSH2 0x1570 JUMP JUMPDEST PUSH2 0xF2F JUMP JUMPDEST PUSH2 0x311 PUSH1 0xC SLOAD DUP2 JUMP JUMPDEST PUSH2 0x29C PUSH20 0x333431CDAE737CD1BF6AD26C22E443700710D819 DUP2 JUMP JUMPDEST PUSH2 0x311 PUSH1 0x9 SLOAD DUP2 JUMP JUMPDEST PUSH1 0x60 PUSH1 0x3 DUP1 SLOAD PUSH2 0x548 SWAP1 PUSH2 0x15A3 JUMP JUMPDEST DUP1 PUSH1 0x1F ADD PUSH1 0x20 DUP1 SWAP2 DIV MUL PUSH1 0x20 ADD PUSH1 0x40 MLOAD SWAP1 DUP2 ADD PUSH1 0x40 MSTORE DUP1 SWAP3 SWAP2 SWAP1 DUP2 DUP2 MSTORE PUSH1 0x20 ADD DUP3 DUP1 SLOAD PUSH2 0x574 SWAP1 PUSH2 0x15A3 JUMP JUMPDEST DUP1 ISZERO PUSH2 0x5C1 JUMPI DUP1 PUSH1 0x1F LT PUSH2 0x596 JUMPI PUSH2 0x100 DUP1 DUP4 SLOAD DIV MUL DUP4 MSTORE SWAP2 PUSH1 0x20 ADD SWAP2 PUSH2 0x5C1 JUMP JUMPDEST DUP3 ADD SWAP2 SWAP1 PUSH1 0x0 MSTORE PUSH1 0x20 PUSH1 0x0 KECCAK256 SWAP1 JUMPDEST DUP2 SLOAD DUP2 MSTORE SWAP1 PUSH1 0x1 ADD SWAP1 PUSH1 0x20 ADD DUP1 DUP4 GT PUSH2 0x5A4 JUMPI DUP3 SWAP1 SUB PUSH1 0x1F AND DUP3 ADD SWAP2 JUMPDEST POP POP POP POP POP SWAP1 POP SWAP1 JUMP JUMPDEST PUSH1 0xD SLOAD PUSH1 0x0 SWAP1 PUSH1 0xFF AND PUSH2 0x5F9 JUMPI PUSH1 0x40 MLOAD PUSH3 0x461BCD PUSH1 0xE5 SHL DUP2 MSTORE PUSH1 0x4 ADD PUSH2 0x5F0 SWAP1 PUSH2 0x15DE JUMP JUMPDEST PUSH1 0x40 MLOAD DUP1 SWAP2 SUB SWAP1 REVERT JUMPDEST CALLER PUSH2 0x605 DUP2 DUP6 DUP6 PUSH2 0xF80 JUMP JUMPDEST POP PUSH1 0x1 SWAP4 SWAP3 POP POP POP JUMP JUMPDEST PUSH1 0xD SLOAD PUSH1 0x0 SWAP1 PUSH1 0xFF AND PUSH2 0x634 JUMPI PUSH1 0x40 MLOAD PUSH3 0x461BCD PUSH1 0xE5 SHL DUP2 MSTORE PUSH1 0x4 ADD PUSH2 0x5F0 SWAP1 PUSH2 0x15DE JUMP JUMPDEST CALLER PUSH2 0x640 DUP6 DUP3 DUP6 PUSH2 0x10A9 JUMP JUMPDEST PUSH2 0x64B DUP6 DUP6 DUP6 PUSH2 0x111D JUMP JUMPDEST POP PUSH1 0x1 SWAP5 SWAP4 POP POP POP POP JUMP JUMPDEST PUSH1 0xD SLOAD PUSH1 0x0 SWAP1 PUSH1 0xFF AND PUSH2 0x67B JUMPI PUSH1 0x40 MLOAD PUSH3 0x461BCD PUSH1 0xE5 SHL DUP2 MSTORE PUSH1 0x4 ADD PUSH2 0x5F0 SWAP1 PUSH2 0x15DE JUMP JUMPDEST CALLER PUSH1 0x0 DUP2 DUP2 MSTORE PUSH1 0x2 PUSH1 0x20 SWAP1 DUP2 MSTORE PUSH1 0x40 DUP1 DUP4 KECCAK256 PUSH1 0x1 PUSH1 0x1 PUSH1 0xA0 SHL SUB DUP9 AND DUP5 MSTORE SWAP1 SWAP2 MSTORE SWAP1 KECCAK256 SLOAD PUSH2 0x605 SWAP1 DUP3 SWAP1 DUP7 SWAP1 PUSH2 0x6B2 SWAP1 DUP8 SWAP1 PUSH2 0x162B JUMP JUMPDEST PUSH2 0xF80 JUMP JUMPDEST CALLER PUSH20 0x13200C0FAC543E5A7F85791E65BEA038FE6EE25D EQ PUSH2 0x730 JUMPI PUSH1 0x40 MLOAD PUSH3 0x461BCD PUSH1 0xE5 SHL DUP2 MSTORE PUSH1 0x20 PUSH1 0x4 DUP3 ADD MSTORE PUSH1 0x2D PUSH1 0x24 DUP3 ADD MSTORE PUSH32 0x56454C414D49533A2063616C6C65722069736E27742073746F70706572206F66 PUSH1 0x44 DUP3 ADD MSTORE PUSH13 0x81D1A194818DBDB9D1C9858DD PUSH1 0x9A SHL PUSH1 0x64 DUP3 ADD MSTORE PUSH1 0x84 ADD PUSH2 0x5F0 JUMP JUMPDEST PUSH1 0xD DUP1 SLOAD PUSH1 0xFF NOT AND SWAP1 SSTORE JUMP JUMPDEST CALLER PUSH20 0x6742E82826F03F69B46D86FF2AFAF870F9A188C6 EQ PUSH2 0x76F JUMPI PUSH1 0x40 MLOAD PUSH3 0x461BCD PUSH1 0xE5 SHL DUP2 MSTORE PUSH1 0x4 ADD PUSH2 0x5F0 SWAP1 PUSH2 0x1643 JUMP JUMPDEST PUSH1 0xD SLOAD PUSH1 0xFF AND PUSH2 0x791 JUMPI PUSH1 0x40 MLOAD PUSH3 0x461BCD PUSH1 0xE5 SHL DUP2 MSTORE PUSH1 0x4 ADD PUSH2 0x5F0 SWAP1 PUSH2 0x15DE JUMP JUMPDEST PUSH1 0x14 PUSH1 0xA SLOAD GT ISZERO PUSH2 0x7E4 JUMPI PUSH1 0x40 MLOAD PUSH3 0x461BCD PUSH1 0xE5 SHL DUP2 MSTORE PUSH1 0x20 PUSH1 0x4 DUP3 ADD MSTORE PUSH1 0x1F PUSH1 0x24 DUP3 ADD MSTORE PUSH32 0x56454C414D49533A20746F6B656E206973737561636520697320656E64656400 PUSH1 0x44 DUP3 ADD MSTORE PUSH1 0x64 ADD PUSH2 0x5F0 JUMP JUMPDEST PUSH1 0xB SLOAD TIMESTAMP LT ISZERO PUSH2 0x845 JUMPI PUSH1 0x40 MLOAD PUSH3 0x461BCD PUSH1 0xE5 SHL DUP2 MSTORE PUSH1 0x20 PUSH1 0x4 DUP3 ADD MSTORE PUSH1 0x26 PUSH1 0x24 DUP3 ADD MSTORE PUSH32 0x56454C414D49533A2069742069736E2774207468652069737375616365207469 PUSH1 0x44 DUP3 ADD MSTORE PUSH6 0x6D65206E6F77 PUSH1 0xD0 SHL PUSH1 0x64 DUP3 ADD MSTORE PUSH1 0x84 ADD PUSH2 0x5F0 JUMP JUMPDEST PUSH1 0xA SLOAD PUSH1 0x0 SWAP1 ISZERO PUSH2 0x8C7 JUMPI PUSH2 0x2710 PUSH1 0x0 PUSH1 0x1 PUSH1 0xA SLOAD PUSH2 0x864 SWAP2 SWAP1 PUSH2 0x1690 JUMP JUMPDEST DUP2 SLOAD DUP2 LT PUSH2 0x874 JUMPI PUSH2 0x874 PUSH2 0x16A7 JUMP JUMPDEST SWAP1 PUSH1 0x0 MSTORE PUSH1 0x20 PUSH1 0x0 KECCAK256 ADD SLOAD PUSH1 0x0 PUSH1 0xA SLOAD DUP2 SLOAD DUP2 LT PUSH2 0x894 JUMPI PUSH2 0x894 PUSH2 0x16A7 JUMP JUMPDEST SWAP1 PUSH1 0x0 MSTORE PUSH1 0x20 PUSH1 0x0 KECCAK256 ADD SLOAD PUSH2 0x8A9 SWAP2 SWAP1 PUSH2 0x1690 JUMP JUMPDEST PUSH1 0x7 SLOAD PUSH2 0x8B6 SWAP2 SWAP1 PUSH2 0x16BD JUMP JUMPDEST PUSH2 0x8C0 SWAP2 SWAP1 PUSH2 0x16DC JUMP JUMPDEST SWAP1 POP PUSH2 0x904 JUMP JUMPDEST PUSH2 0x2710 PUSH1 0x0 PUSH1 0xA SLOAD DUP2 SLOAD DUP2 LT PUSH2 0x8DF JUMPI PUSH2 0x8DF PUSH2 0x16A7 JUMP JUMPDEST SWAP1 PUSH1 0x0 MSTORE PUSH1 0x20 PUSH1 0x0 KECCAK256 ADD SLOAD PUSH1 0x7 SLOAD PUSH2 0x8F7 SWAP2 SWAP1 PUSH2 0x16BD JUMP JUMPDEST PUSH2 0x901 SWAP2 SWAP1 PUSH2 0x16DC JUMP JUMPDEST SWAP1 POP JUMPDEST PUSH20 0x6742E82826F03F69B46D86FF2AFAF870F9A188C6 PUSH1 0x0 SWAP1 DUP2 MSTORE PUSH1 0x1 PUSH1 0x20 MSTORE PUSH32 0xEE8AAF4E0F85EC16B756F8A07B01337AF9540E49C04A5B84E30B17212FDBC088 DUP1 SLOAD DUP4 SWAP3 SWAP1 PUSH2 0x954 SWAP1 DUP5 SWAP1 PUSH2 0x162B JUMP JUMPDEST SWAP3 POP POP DUP2 SWAP1 SSTORE POP DUP1 PUSH1 0x6 PUSH1 0x0 DUP3 DUP3 SLOAD PUSH2 0x96D SWAP2 SWAP1 PUSH2 0x162B JUMP JUMPDEST SWAP3 POP POP DUP2 SWAP1 SSTORE POP PUSH3 0x278D00 PUSH1 0xB PUSH1 0x0 DUP3 DUP3 SLOAD PUSH2 0x989 SWAP2 SWAP1 PUSH2 0x162B JUMP JUMPDEST SWAP1 SWAP2 SSTORE POP POP PUSH1 0xA SLOAD PUSH2 0x99C SWAP1 PUSH1 0x1 PUSH2 0x162B JUMP JUMPDEST PUSH1 0xA SSTORE PUSH1 0x40 MLOAD DUP2 DUP2 MSTORE PUSH20 0x6742E82826F03F69B46D86FF2AFAF870F9A188C6 SWAP1 PUSH1 0x0 SWAP1 PUSH32 0xDDF252AD1BE2C89B69C2B068FC378DAA952BA7F163C4A11628F55A4DF523B3EF SWAP1 PUSH1 0x20 ADD PUSH1 0x40 MLOAD DUP1 SWAP2 SUB SWAP1 LOG3 POP JUMP JUMPDEST CALLER PUSH20 0x6742E82826F03F69B46D86FF2AFAF870F9A188C6 EQ PUSH2 0xA21 JUMPI PUSH1 0x40 MLOAD PUSH3 0x461BCD PUSH1 0xE5 SHL DUP2 MSTORE PUSH1 0x4 ADD PUSH2 0x5F0 SWAP1 PUSH2 0x1643 JUMP JUMPDEST PUSH1 0xD SLOAD PUSH1 0xFF AND PUSH2 0xA43 JUMPI PUSH1 0x40 MLOAD PUSH3 0x461BCD PUSH1 0xE5 SHL DUP2 MSTORE PUSH1 0x4 ADD PUSH2 0x5F0 SWAP1 PUSH2 0x15DE JUMP JUMPDEST PUSH1 0x0 PUSH1 0x64 PUSH1 0x9 SLOAD DUP4 PUSH2 0xA55 SWAP2 SWAP1 PUSH2 0x16BD JUMP JUMPDEST PUSH2 0xA5F SWAP2 SWAP1 PUSH2 0x16DC JUMP JUMPDEST SWAP1 POP PUSH1 0x0 PUSH1 0x64 PUSH1 0x7 SLOAD PUSH1 0x32 PUSH2 0xA74 SWAP2 SWAP1 PUSH2 0x16BD JUMP JUMPDEST PUSH2 0xA7E SWAP2 SWAP1 PUSH2 0x16DC JUMP JUMPDEST SWAP1 POP DUP1 PUSH1 0xF SLOAD LT PUSH2 0xADD JUMPI PUSH1 0x40 MLOAD PUSH3 0x461BCD PUSH1 0xE5 SHL DUP2 MSTORE PUSH1 0x20 PUSH1 0x4 DUP3 ADD MSTORE PUSH1 0x23 PUSH1 0x24 DUP3 ADD MSTORE PUSH32 0x56454C414D49533A20746F6B656E73206861766520616C726561647920627572 PUSH1 0x44 DUP3 ADD MSTORE PUSH3 0x1B9959 PUSH1 0xEA SHL PUSH1 0x64 DUP3 ADD MSTORE PUSH1 0x84 ADD PUSH2 0x5F0 JUMP JUMPDEST DUP1 DUP3 PUSH1 0xF SLOAD PUSH2 0xAEC SWAP2 SWAP1 PUSH2 0x162B JUMP JUMPDEST GT ISZERO PUSH2 0xB02 JUMPI PUSH1 0xF SLOAD PUSH2 0xAFF SWAP1 DUP3 PUSH2 0x1690 JUMP JUMPDEST SWAP2 POP JUMPDEST PUSH2 0xB20 PUSH20 0x6742E82826F03F69B46D86FF2AFAF870F9A188C6 DUP4 PUSH2 0x12F2 JUMP JUMPDEST POP POP POP JUMP JUMPDEST PUSH1 0x0 DUP2 DUP2 SLOAD DUP2 LT PUSH2 0xB35 JUMPI PUSH1 0x0 DUP1 REVERT JUMPDEST PUSH1 0x0 SWAP2 DUP3 MSTORE PUSH1 0x20 SWAP1 SWAP2 KECCAK256 ADD SLOAD SWAP1 POP DUP2 JUMP JUMPDEST PUSH1 0x60 PUSH1 0x4 DUP1 SLOAD PUSH2 0x548 SWAP1 PUSH2 0x15A3 JUMP JUMPDEST PUSH1 0xD SLOAD PUSH1 0x0 SWAP1 PUSH1 0xFF AND PUSH2 0xB7A JUMPI PUSH1 0x40 MLOAD PUSH3 0x461BCD PUSH1 0xE5 SHL DUP2 MSTORE PUSH1 0x4 ADD PUSH2 0x5F0 SWAP1 PUSH2 0x15DE JUMP JUMPDEST CALLER PUSH1 0x0 DUP2 DUP2 MSTORE PUSH1 0x2 PUSH1 0x20 SWAP1 DUP2 MSTORE PUSH1 0x40 DUP1 DUP4 KECCAK256 PUSH1 0x1 PUSH1 0x1 PUSH1 0xA0 SHL SUB DUP9 AND DUP5 MSTORE SWAP1 SWAP2 MSTORE SWAP1 KECCAK256 SLOAD DUP4 DUP2 LT ISZERO PUSH2 0xBFE JUMPI PUSH1 0x40 MLOAD PUSH3 0x461BCD PUSH1 0xE5 SHL DUP2 MSTORE PUSH1 0x20 PUSH1 0x4 DUP3 ADD MSTORE PUSH1 0x27 PUSH1 0x24 DUP3 ADD MSTORE PUSH32 0x56454C414D49533A2064656372656173656420616C6C6F77616E63652062656C PUSH1 0x44 DUP3 ADD MSTORE PUSH7 0x6F77207A65726F PUSH1 0xC8 SHL PUSH1 0x64 DUP3 ADD MSTORE PUSH1 0x84 ADD PUSH2 0x5F0 JUMP JUMPDEST PUSH2 0x64B DUP3 DUP7 DUP7 DUP5 SUB PUSH2 0xF80 JUMP JUMPDEST PUSH1 0xD SLOAD PUSH1 0x0 SWAP1 PUSH1 0xFF AND PUSH2 0xC30 JUMPI PUSH1 0x40 MLOAD PUSH3 0x461BCD PUSH1 0xE5 SHL DUP2 MSTORE PUSH1 0x4 ADD PUSH2 0x5F0 SWAP1 PUSH2 0x15DE JUMP JUMPDEST CALLER PUSH2 0x605 DUP2 DUP6 DUP6 PUSH2 0x111D JUMP JUMPDEST CALLER PUSH20 0x6742E82826F03F69B46D86FF2AFAF870F9A188C6 EQ PUSH2 0xC6F JUMPI PUSH1 0x40 MLOAD PUSH3 0x461BCD PUSH1 0xE5 SHL DUP2 MSTORE PUSH1 0x4 ADD PUSH2 0x5F0 SWAP1 PUSH2 0x1643 JUMP JUMPDEST PUSH1 0xD SLOAD PUSH1 0xFF AND PUSH2 0xC91 JUMPI PUSH1 0x40 MLOAD PUSH3 0x461BCD PUSH1 0xE5 SHL DUP2 MSTORE PUSH1 0x4 ADD PUSH2 0x5F0 SWAP1 PUSH2 0x15DE JUMP JUMPDEST PUSH1 0x8 DUP2 PUSH1 0xFF AND LT PUSH2 0xCF0 JUMPI PUSH1 0x40 MLOAD PUSH3 0x461BCD PUSH1 0xE5 SHL DUP2 MSTORE PUSH1 0x20 PUSH1 0x4 DUP3 ADD MSTORE PUSH1 0x23 PUSH1 0x24 DUP3 ADD MSTORE PUSH32 0x56454C414D49533A20696E646578206D757374206265206C657373207468616E PUSH1 0x44 DUP3 ADD MSTORE PUSH3 0x101C17 PUSH1 0xE9 SHL PUSH1 0x64 DUP3 ADD MSTORE PUSH1 0x84 ADD PUSH2 0x5F0 JUMP JUMPDEST PUSH1 0x8 DUP2 PUSH1 0xFF AND DUP2 SLOAD DUP2 LT PUSH2 0xD06 JUMPI PUSH2 0xD06 PUSH2 0x16A7 JUMP JUMPDEST SWAP1 PUSH1 0x0 MSTORE PUSH1 0x20 PUSH1 0x0 KECCAK256 SWAP1 PUSH1 0x20 SWAP2 DUP3 DUP3 DIV ADD SWAP2 SWAP1 MOD SWAP1 SLOAD SWAP1 PUSH2 0x100 EXP SWAP1 DIV PUSH1 0xFF AND ISZERO PUSH2 0xD99 JUMPI PUSH1 0x40 MLOAD PUSH3 0x461BCD PUSH1 0xE5 SHL DUP2 MSTORE PUSH1 0x20 PUSH1 0x4 DUP3 ADD MSTORE PUSH1 0x37 PUSH1 0x24 DUP3 ADD MSTORE PUSH32 0x56454C414D49533A20646973747269627574696F6E2077697468207468697320 PUSH1 0x44 DUP3 ADD MSTORE PUSH32 0x696E6465782068616420616C726561647920646F6E652E000000000000000000 PUSH1 0x64 DUP3 ADD MSTORE PUSH1 0x84 ADD PUSH2 0x5F0 JUMP JUMPDEST PUSH1 0x0 DUP1 PUSH1 0xFF DUP4 AND PUSH2 0xDC3 JUMPI POP PUSH20 0x2F609C920C78535BF3AE62B92FFB131CB37B03EB SWAP1 POP PUSH1 0x5 PUSH2 0xEEC JUMP JUMPDEST DUP3 PUSH1 0xFF AND PUSH1 0x1 EQ ISZERO PUSH2 0xDEE JUMPI POP PUSH20 0xD0BDC14F6457511655E2290C56FDAD5A3F96DDEA SWAP1 POP PUSH1 0xA PUSH2 0xEEC JUMP JUMPDEST DUP3 PUSH1 0xFF AND PUSH1 0x2 EQ ISZERO PUSH2 0xE19 JUMPI POP PUSH20 0x1FA257B5AA21E21BD6FA0F421638661B8A422902 SWAP1 POP PUSH1 0x5 PUSH2 0xEEC JUMP JUMPDEST DUP3 PUSH1 0xFF AND PUSH1 0x3 EQ ISZERO PUSH2 0xE44 JUMPI POP PUSH20 0x7DE8E2B7F921BA243454B30406076A89FDF7C343 SWAP1 POP PUSH1 0x5 PUSH2 0xEEC JUMP JUMPDEST DUP3 PUSH1 0xFF AND PUSH1 0x4 EQ ISZERO PUSH2 0xE6F JUMPI POP PUSH20 0x5B58E5DF395F87CE0CD2A677B9A48CBB7CB3A843 SWAP1 POP PUSH1 0xA PUSH2 0xEEC JUMP JUMPDEST DUP3 PUSH1 0xFF AND PUSH1 0x5 EQ ISZERO PUSH2 0xE9A JUMPI POP PUSH20 0x333431CDAE737CD1BF6AD26C22E443700710D819 SWAP1 POP PUSH1 0x14 PUSH2 0xEEC JUMP JUMPDEST DUP3 PUSH1 0xFF AND PUSH1 0x6 EQ ISZERO PUSH2 0xEC5 JUMPI POP PUSH20 0xA9ED9C85A7CC10ED3CB439934A25D737C6B8D006 SWAP1 POP PUSH1 0x19 PUSH2 0xEEC JUMP JUMPDEST DUP3 PUSH1 0xFF AND PUSH1 0x7 EQ ISZERO PUSH2 0xEEC JUMPI POP PUSH20 0x44A7CC9762C267180E0E09D56A84D70629258E29 SWAP1 POP PUSH1 0x14 JUMPDEST PUSH1 0x0 PUSH1 0x64 DUP3 PUSH1 0x7 SLOAD PUSH2 0xEFE SWAP2 SWAP1 PUSH2 0x16BD JUMP JUMPDEST PUSH2 0xF08 SWAP2 SWAP1 PUSH2 0x16DC JUMP JUMPDEST SWAP1 POP PUSH2 0xF29 PUSH20 0x6742E82826F03F69B46D86FF2AFAF870F9A188C6 DUP5 DUP4 PUSH2 0x111D JUMP JUMPDEST POP POP POP POP JUMP JUMPDEST PUSH1 0xD SLOAD PUSH1 0x0 SWAP1 PUSH1 0xFF AND PUSH2 0xF54 JUMPI PUSH1 0x40 MLOAD PUSH3 0x461BCD PUSH1 0xE5 SHL DUP2 MSTORE PUSH1 0x4 ADD PUSH2 0x5F0 SWAP1 PUSH2 0x15DE JUMP JUMPDEST POP PUSH1 0x1 PUSH1 0x1 PUSH1 0xA0 SHL SUB SWAP2 DUP3 AND PUSH1 0x0 SWAP1 DUP2 MSTORE PUSH1 0x2 PUSH1 0x20 SWAP1 DUP2 MSTORE PUSH1 0x40 DUP1 DUP4 KECCAK256 SWAP4 SWAP1 SWAP5 AND DUP3 MSTORE SWAP2 SWAP1 SWAP2 MSTORE KECCAK256 SLOAD SWAP1 JUMP JUMPDEST PUSH1 0x1 PUSH1 0x1 PUSH1 0xA0 SHL SUB DUP4 AND PUSH2 0xFE5 JUMPI PUSH1 0x40 MLOAD PUSH3 0x461BCD PUSH1 0xE5 SHL DUP2 MSTORE PUSH1 0x20 PUSH1 0x4 DUP3 ADD MSTORE PUSH1 0x26 PUSH1 0x24 DUP3 ADD MSTORE PUSH32 0x56454C414D49533A20617070726F76652066726F6D20746865207A65726F2061 PUSH1 0x44 DUP3 ADD MSTORE PUSH6 0x646472657373 PUSH1 0xD0 SHL PUSH1 0x64 DUP3 ADD MSTORE PUSH1 0x84 ADD PUSH2 0x5F0 JUMP JUMPDEST PUSH1 0x1 PUSH1 0x1 PUSH1 0xA0 SHL SUB DUP3 AND PUSH2 0x1047 JUMPI PUSH1 0x40 MLOAD PUSH3 0x461BCD PUSH1 0xE5 SHL DUP2 MSTORE PUSH1 0x20 PUSH1 0x4 DUP3 ADD MSTORE PUSH1 0x24 DUP1 DUP3 ADD MSTORE PUSH32 0x56454C414D49533A20617070726F766520746F20746865207A65726F20616464 PUSH1 0x44 DUP3 ADD MSTORE PUSH4 0x72657373 PUSH1 0xE0 SHL PUSH1 0x64 DUP3 ADD MSTORE PUSH1 0x84 ADD PUSH2 0x5F0 JUMP JUMPDEST PUSH1 0x1 PUSH1 0x1 PUSH1 0xA0 SHL SUB DUP4 DUP2 AND PUSH1 0x0 DUP2 DUP2 MSTORE PUSH1 0x2 PUSH1 0x20 SWAP1 DUP2 MSTORE PUSH1 0x40 DUP1 DUP4 KECCAK256 SWAP5 DUP8 AND DUP1 DUP5 MSTORE SWAP5 DUP3 MSTORE SWAP2 DUP3 SWAP1 KECCAK256 DUP6 SWAP1 SSTORE SWAP1 MLOAD DUP5 DUP2 MSTORE PUSH32 0x8C5BE1E5EBEC7D5BD14F71427D1E84F3DD0314C0F7B2291E5B200AC8C7C3B925 SWAP2 ADD JUMPDEST PUSH1 0x40 MLOAD DUP1 SWAP2 SUB SWAP1 LOG3 POP POP POP JUMP JUMPDEST PUSH1 0x0 PUSH2 0x10B5 DUP5 DUP5 PUSH2 0xF2F JUMP JUMPDEST SWAP1 POP PUSH1 0x0 NOT DUP2 EQ PUSH2 0xF29 JUMPI DUP2 DUP2 LT ISZERO PUSH2 0x1110 JUMPI PUSH1 0x40 MLOAD PUSH3 0x461BCD PUSH1 0xE5 SHL DUP2 MSTORE PUSH1 0x20 PUSH1 0x4 DUP3 ADD MSTORE PUSH1 0x1F PUSH1 0x24 DUP3 ADD MSTORE PUSH32 0x56454C414D49533A20696E73756666696369656E7420616C6C6F77616E636500 PUSH1 0x44 DUP3 ADD MSTORE PUSH1 0x64 ADD PUSH2 0x5F0 JUMP JUMPDEST PUSH2 0xF29 DUP5 DUP5 DUP5 DUP5 SUB PUSH2 0xF80 JUMP JUMPDEST PUSH1 0x1 PUSH1 0x1 PUSH1 0xA0 SHL SUB DUP4 AND PUSH2 0x1183 JUMPI PUSH1 0x40 MLOAD PUSH3 0x461BCD PUSH1 0xE5 SHL DUP2 MSTORE PUSH1 0x20 PUSH1 0x4 DUP3 ADD MSTORE PUSH1 0x27 PUSH1 0x24 DUP3 ADD MSTORE PUSH32 0x56454C414D49533A207472616E736665722066726F6D20746865207A65726F20 PUSH1 0x44 DUP3 ADD MSTORE PUSH7 0x61646472657373 PUSH1 0xC8 SHL PUSH1 0x64 DUP3 ADD MSTORE PUSH1 0x84 ADD PUSH2 0x5F0 JUMP JUMPDEST PUSH1 0x1 PUSH1 0x1 PUSH1 0xA0 SHL SUB DUP3 AND PUSH2 0x11E7 JUMPI PUSH1 0x40 MLOAD PUSH3 0x461BCD PUSH1 0xE5 SHL DUP2 MSTORE PUSH1 0x20 PUSH1 0x4 DUP3 ADD MSTORE PUSH1 0x25 PUSH1 0x24 DUP3 ADD MSTORE PUSH32 0x56454C414D49533A207472616E7366657220746F20746865207A65726F206164 PUSH1 0x44 DUP3 ADD MSTORE PUSH5 0x6472657373 PUSH1 0xD8 SHL PUSH1 0x64 DUP3 ADD MSTORE PUSH1 0x84 ADD PUSH2 0x5F0 JUMP JUMPDEST PUSH1 0x1 PUSH1 0x1 PUSH1 0xA0 SHL SUB DUP4 AND PUSH1 0x0 SWAP1 DUP2 MSTORE PUSH1 0x1 PUSH1 0x20 MSTORE PUSH1 0x40 SWAP1 KECCAK256 SLOAD DUP2 DUP2 LT ISZERO PUSH2 0x1261 JUMPI PUSH1 0x40 MLOAD PUSH3 0x461BCD PUSH1 0xE5 SHL DUP2 MSTORE PUSH1 0x20 PUSH1 0x4 DUP3 ADD MSTORE PUSH1 0x28 PUSH1 0x24 DUP3 ADD MSTORE PUSH32 0x56454C414D49533A207472616E7366657220616D6F756E742065786365656473 PUSH1 0x44 DUP3 ADD MSTORE PUSH8 0x2062616C616E6365 PUSH1 0xC0 SHL PUSH1 0x64 DUP3 ADD MSTORE PUSH1 0x84 ADD PUSH2 0x5F0 JUMP JUMPDEST PUSH1 0x1 PUSH1 0x1 PUSH1 0xA0 SHL SUB DUP1 DUP6 AND PUSH1 0x0 SWAP1 DUP2 MSTORE PUSH1 0x1 PUSH1 0x20 MSTORE PUSH1 0x40 DUP1 DUP3 KECCAK256 DUP6 DUP6 SUB SWAP1 SSTORE SWAP2 DUP6 AND DUP2 MSTORE SWAP1 DUP2 KECCAK256 DUP1 SLOAD DUP5 SWAP3 SWAP1 PUSH2 0x1298 SWAP1 DUP5 SWAP1 PUSH2 0x162B JUMP JUMPDEST SWAP3 POP POP DUP2 SWAP1 SSTORE POP DUP3 PUSH1 0x1 PUSH1 0x1 PUSH1 0xA0 SHL SUB AND DUP5 PUSH1 0x1 PUSH1 0x1 PUSH1 0xA0 SHL SUB AND PUSH32 0xDDF252AD1BE2C89B69C2B068FC378DAA952BA7F163C4A11628F55A4DF523B3EF DUP5 PUSH1 0x40 MLOAD PUSH2 0x12E4 SWAP2 DUP2 MSTORE PUSH1 0x20 ADD SWAP1 JUMP JUMPDEST PUSH1 0x40 MLOAD DUP1 SWAP2 SUB SWAP1 LOG3 POP POP POP POP JUMP JUMPDEST PUSH1 0x1 PUSH1 0x1 PUSH1 0xA0 SHL SUB DUP3 AND PUSH2 0x1354 JUMPI PUSH1 0x40 MLOAD PUSH3 0x461BCD PUSH1 0xE5 SHL DUP2 MSTORE PUSH1 0x20 PUSH1 0x4 DUP3 ADD MSTORE PUSH1 0x23 PUSH1 0x24 DUP3 ADD MSTORE PUSH32 0x56454C414D49533A206275726E2066726F6D20746865207A65726F2061646472 PUSH1 0x44 DUP3 ADD MSTORE PUSH3 0x657373 PUSH1 0xE8 SHL PUSH1 0x64 DUP3 ADD MSTORE PUSH1 0x84 ADD PUSH2 0x5F0 JUMP JUMPDEST PUSH1 0x1 PUSH1 0x1 PUSH1 0xA0 SHL SUB DUP3 AND PUSH1 0x0 SWAP1 DUP2 MSTORE PUSH1 0x1 PUSH1 0x20 MSTORE PUSH1 0x40 SWAP1 KECCAK256 SLOAD DUP2 DUP2 LT ISZERO PUSH2 0x13C9 JUMPI PUSH1 0x40 MLOAD PUSH3 0x461BCD PUSH1 0xE5 SHL DUP2 MSTORE PUSH1 0x20 PUSH1 0x4 DUP3 ADD MSTORE PUSH1 0x24 DUP1 DUP3 ADD MSTORE PUSH32 0x56454C414D49533A206275726E20616D6F756E7420657863656564732062616C PUSH1 0x44 DUP3 ADD MSTORE PUSH4 0x616E6365 PUSH1 0xE0 SHL PUSH1 0x64 DUP3 ADD MSTORE PUSH1 0x84 ADD PUSH2 0x5F0 JUMP JUMPDEST PUSH1 0x1 PUSH1 0x1 PUSH1 0xA0 SHL SUB DUP4 AND PUSH1 0x0 SWAP1 DUP2 MSTORE PUSH1 0x1 PUSH1 0x20 MSTORE PUSH1 0x40 DUP2 KECCAK256 DUP4 DUP4 SUB SWAP1 SSTORE PUSH1 0x6 DUP1 SLOAD DUP5 SWAP3 SWAP1 PUSH2 0x13F8 SWAP1 DUP5 SWAP1 PUSH2 0x1690 JUMP JUMPDEST SWAP1 SWAP2 SSTORE POP POP PUSH1 0x40 MLOAD DUP3 DUP2 MSTORE PUSH1 0x0 SWAP1 PUSH1 0x1 PUSH1 0x1 PUSH1 0xA0 SHL SUB DUP6 AND SWAP1 PUSH32 0xDDF252AD1BE2C89B69C2B068FC378DAA952BA7F163C4A11628F55A4DF523B3EF SWAP1 PUSH1 0x20 ADD PUSH2 0x109C JUMP JUMPDEST PUSH1 0x0 PUSH1 0x20 DUP1 DUP4 MSTORE DUP4 MLOAD DUP1 DUP3 DUP6 ADD MSTORE PUSH1 0x0 JUMPDEST DUP2 DUP2 LT ISZERO PUSH2 0x1468 JUMPI DUP6 DUP2 ADD DUP4 ADD MLOAD DUP6 DUP3 ADD PUSH1 0x40 ADD MSTORE DUP3 ADD PUSH2 0x144C JUMP JUMPDEST DUP2 DUP2 GT ISZERO PUSH2 0x147A JUMPI PUSH1 0x0 PUSH1 0x40 DUP4 DUP8 ADD ADD MSTORE JUMPDEST POP PUSH1 0x1F ADD PUSH1 0x1F NOT AND SWAP3 SWAP1 SWAP3 ADD PUSH1 0x40 ADD SWAP4 SWAP3 POP POP POP JUMP JUMPDEST DUP1 CALLDATALOAD PUSH1 0x1 PUSH1 0x1 PUSH1 0xA0 SHL SUB DUP2 AND DUP2 EQ PUSH2 0x14A7 JUMPI PUSH1 0x0 DUP1 REVERT JUMPDEST SWAP2 SWAP1 POP JUMP JUMPDEST PUSH1 0x0 DUP1 PUSH1 0x40 DUP4 DUP6 SUB SLT ISZERO PUSH2 0x14BF JUMPI PUSH1 0x0 DUP1 REVERT JUMPDEST PUSH2 0x14C8 DUP4 PUSH2 0x1490 JUMP JUMPDEST SWAP5 PUSH1 0x20 SWAP4 SWAP1 SWAP4 ADD CALLDATALOAD SWAP4 POP POP POP JUMP JUMPDEST PUSH1 0x0 DUP1 PUSH1 0x0 PUSH1 0x60 DUP5 DUP7 SUB SLT ISZERO PUSH2 0x14EB JUMPI PUSH1 0x0 DUP1 REVERT JUMPDEST PUSH2 0x14F4 DUP5 PUSH2 0x1490 JUMP JUMPDEST SWAP3 POP PUSH2 0x1502 PUSH1 0x20 DUP6 ADD PUSH2 0x1490 JUMP JUMPDEST SWAP2 POP PUSH1 0x40 DUP5 ADD CALLDATALOAD SWAP1 POP SWAP3 POP SWAP3 POP SWAP3 JUMP JUMPDEST PUSH1 0x0 PUSH1 0x20 DUP3 DUP5 SUB SLT ISZERO PUSH2 0x1524 JUMPI PUSH1 0x0 DUP1 REVERT JUMPDEST POP CALLDATALOAD SWAP2 SWAP1 POP JUMP JUMPDEST PUSH1 0x0 PUSH1 0x20 DUP3 DUP5 SUB SLT ISZERO PUSH2 0x153D JUMPI PUSH1 0x0 DUP1 REVERT JUMPDEST PUSH2 0x1546 DUP3 PUSH2 0x1490 JUMP JUMPDEST SWAP4 SWAP3 POP POP POP JUMP JUMPDEST PUSH1 0x0 PUSH1 0x20 DUP3 DUP5 SUB SLT ISZERO PUSH2 0x155F JUMPI PUSH1 0x0 DUP1 REVERT JUMPDEST DUP2 CALLDATALOAD PUSH1 0xFF DUP2 AND DUP2 EQ PUSH2 0x1546 JUMPI PUSH1 0x0 DUP1 REVERT JUMPDEST PUSH1 0x0 DUP1 PUSH1 0x40 DUP4 DUP6 SUB SLT ISZERO PUSH2 0x1583 JUMPI PUSH1 0x0 DUP1 REVERT JUMPDEST PUSH2 0x158C DUP4 PUSH2 0x1490 JUMP JUMPDEST SWAP2 POP PUSH2 0x159A PUSH1 0x20 DUP5 ADD PUSH2 0x1490 JUMP JUMPDEST SWAP1 POP SWAP3 POP SWAP3 SWAP1 POP JUMP JUMPDEST PUSH1 0x1 DUP2 DUP2 SHR SWAP1 DUP3 AND DUP1 PUSH2 0x15B7 JUMPI PUSH1 0x7F DUP3 AND SWAP2 POP JUMPDEST PUSH1 0x20 DUP3 LT DUP2 EQ ISZERO PUSH2 0x15D8 JUMPI PUSH4 0x4E487B71 PUSH1 0xE0 SHL PUSH1 0x0 MSTORE PUSH1 0x22 PUSH1 0x4 MSTORE PUSH1 0x24 PUSH1 0x0 REVERT JUMPDEST POP SWAP2 SWAP1 POP JUMP JUMPDEST PUSH1 0x20 DUP1 DUP3 MSTORE PUSH1 0x1C SWAP1 DUP3 ADD MSTORE PUSH32 0x56454C414D49533A20636F6E74726163742069732073746F7070656400000000 PUSH1 0x40 DUP3 ADD MSTORE PUSH1 0x60 ADD SWAP1 JUMP JUMPDEST PUSH4 0x4E487B71 PUSH1 0xE0 SHL PUSH1 0x0 MSTORE PUSH1 0x11 PUSH1 0x4 MSTORE PUSH1 0x24 PUSH1 0x0 REVERT JUMPDEST PUSH1 0x0 DUP3 NOT DUP3 GT ISZERO PUSH2 0x163E JUMPI PUSH2 0x163E PUSH2 0x1615 JUMP JUMPDEST POP ADD SWAP1 JUMP JUMPDEST PUSH1 0x20 DUP1 DUP3 MSTORE PUSH1 0x2D SWAP1 DUP3 ADD MSTORE PUSH32 0x56454C414D49533A2063616C6C65722069736E2774206D616E61676572206F66 PUSH1 0x40 DUP3 ADD MSTORE PUSH13 0x81D1A194818DBDB9D1C9858DD PUSH1 0x9A SHL PUSH1 0x60 DUP3 ADD MSTORE PUSH1 0x80 ADD SWAP1 JUMP JUMPDEST PUSH1 0x0 DUP3 DUP3 LT ISZERO PUSH2 0x16A2 JUMPI PUSH2 0x16A2 PUSH2 0x1615 JUMP JUMPDEST POP SUB SWAP1 JUMP JUMPDEST PUSH4 0x4E487B71 PUSH1 0xE0 SHL PUSH1 0x0 MSTORE PUSH1 0x32 PUSH1 0x4 MSTORE PUSH1 0x24 PUSH1 0x0 REVERT JUMPDEST PUSH1 0x0 DUP2 PUSH1 0x0 NOT DIV DUP4 GT DUP3 ISZERO ISZERO AND ISZERO PUSH2 0x16D7 JUMPI PUSH2 0x16D7 PUSH2 0x1615 JUMP JUMPDEST POP MUL SWAP1 JUMP JUMPDEST PUSH1 0x0 DUP3 PUSH2 0x16F9 JUMPI PUSH4 0x4E487B71 PUSH1 0xE0 SHL PUSH1 0x0 MSTORE PUSH1 0x12 PUSH1 0x4 MSTORE PUSH1 0x24 PUSH1 0x0 REVERT JUMPDEST POP DIV SWAP1 JUMP INVALID LOG2 PUSH5 0x6970667358 0x22 SLT KECCAK256 0x25 0xB7 PUSH9 0xC19558084E6BC281DC 0x5D LOG0 PUSH4 0x9C1D272C SWAP8 0xCD 0xE1 SIGNEXTEND 0xC2 0xEE 0xA5 0xA8 MSIZE 0xE7 0x5D 0xEA PUSH25 0x64736F6C634300080A00330000000000000000000000000000 "
        },
        "gasEstimates": {
          "creation": {
            "codeDepositCost": "1188000",
            "executionCost": "infinite",
            "totalCost": "infinite"
          },
          "external": {
            "AdvisoryPercent()": "284",
            "AdvisoryWallet()": "283",
            "CompanyPercent()": "240",
            "CompanyWallet()": "326",
            "EcoGrowthPercent()": "350",
            "EcoGrowthWallet()": "328",
            "IssuancePercent(uint256)": "4709",
            "ManageWallet()": "285",
            "PauseWallet()": "260",
            "PrivSalePercent()": "263",
            "PrivSaleWallet()": "261",
            "PubSalePercent()": "349",
            "PubSaleWallet()": "328",
            "StakingRewardPercent()": "262",
            "StakingRewardWallet()": "329",
            "TeamPercent()": "306",
            "TeamWallet()": "262",
            "TreasuryPercent()": "240",
            "TreasuryWallet()": "351",
            "allowance(address,address)": "infinite",
            "approve(address,uint256)": "26819",
            "balanceOf(address)": "2627",
            "burnFee()": "2427",
            "burnTime()": "2383",
            "burnTokens(uint256)": "infinite",
            "decimals()": "2335",
            "decreaseAllowance(address,uint256)": "29154",
            "distributeTokens(uint8)": "61837",
            "increaseAllowance(address,uint256)": "29156",
            "intervalIssuance()": "329",
            "issuanceIndex()": "2429",
            "issuanceTime()": "2406",
            "issueTokens()": "infinite",
            "name()": "infinite",
            "pauseContract()": "24496",
            "starttime()": "2384",
            "status()": "2378",
            "symbol()": "infinite",
            "totalBurnedTokens()": "2384",
            "totalSupply()": "2327",
            "transfer(address,uint256)": "53357",
            "transferFrom(address,address,uint256)": "infinite"
          },
          "internal": {
            "_approve(address,address,uint256)": "infinite",
            "_burn(address,uint256)": "infinite",
            "_spendAllowance(address,address,uint256)": "infinite",
            "_transfer(address,address,uint256)": "infinite"
          }
        },
        "methodIdentifiers": {
          "AdvisoryPercent()": "af6cb99e",
          "AdvisoryWallet()": "8b8cb114",
          "CompanyPercent()": "a4be4b02",
          "CompanyWallet()": "f4dd6626",
          "EcoGrowthPercent()": "676d0e8a",
          "EcoGrowthWallet()": "7ba06d78",
          "IssuancePercent(uint256)": "7fc51ee1",
          "ManageWallet()": "087140d4",
          "PauseWallet()": "db0bbaf3",
          "PrivSalePercent()": "384d4241",
          "PrivSaleWallet()": "5084ae15",
          "PubSalePercent()": "fe738f67",
          "PubSaleWallet()": "27a5331e",
          "StakingRewardPercent()": "50d1197e",
          "StakingRewardWallet()": "09c03d52",
          "TeamPercent()": "56b05a2a",
          "TeamWallet()": "677a8870",
          "TreasuryPercent()": "80c76384",
          "TreasuryWallet()": "11ffeaf2",
          "allowance(address,address)": "dd62ed3e",
          "approve(address,uint256)": "095ea7b3",
          "balanceOf(address)": "70a08231",
          "burnFee()": "fce589d8",
          "burnTime()": "ebf6cf9b",
          "burnTokens(uint256)": "6d1b229d",
          "decimals()": "313ce567",
          "decreaseAllowance(address,uint256)": "a457c2d7",
          "distributeTokens(uint8)": "d2267a6e",
          "increaseAllowance(address,uint256)": "39509351",
          "intervalIssuance()": "4b18e642",
          "issuanceIndex()": "2bdcdb78",
          "issuanceTime()": "d1d8523a",
          "issueTokens()": "60ab5852",
          "name()": "06fdde03",
          "pauseContract()": "439766ce",
          "starttime()": "8da58897",
          "status()": "200d2ed2",
          "symbol()": "95d89b41",
          "totalBurnedTokens()": "555f323a",
          "totalSupply()": "18160ddd",
          "transfer(address,uint256)": "a9059cbb",
          "transferFrom(address,address,uint256)": "23b872dd"
        }
      },
      "storageLayout": {
        "storage": [
          {
            "astId": 94,
            "contract": "contracts/VELAMIS.sol:Velamis",
            "label": "IssuancePercent",
            "offset": 0,
            "slot": "0",
            "type": "t_array(t_uint256)dyn_storage"
          },
          {
            "astId": 98,
            "contract": "contracts/VELAMIS.sol:Velamis",
            "label": "_balances",
            "offset": 0,
            "slot": "1",
            "type": "t_mapping(t_address,t_uint256)"
          },
          {
            "astId": 104,
            "contract": "contracts/VELAMIS.sol:Velamis",
            "label": "_allowances",
            "offset": 0,
            "slot": "2",
            "type": "t_mapping(t_address,t_mapping(t_address,t_uint256))"
          },
          {
            "astId": 107,
            "contract": "contracts/VELAMIS.sol:Velamis",
            "label": "_name",
            "offset": 0,
            "slot": "3",
            "type": "t_string_storage"
          },
          {
            "astId": 110,
            "contract": "contracts/VELAMIS.sol:Velamis",
            "label": "_symbol",
            "offset": 0,
            "slot": "4",
            "type": "t_string_storage"
          },
          {
            "astId": 113,
            "contract": "contracts/VELAMIS.sol:Velamis",
            "label": "_decimals",
            "offset": 0,
            "slot": "5",
            "type": "t_uint8"
          },
          {
            "astId": 115,
            "contract": "contracts/VELAMIS.sol:Velamis",
            "label": "_totalSupply",
            "offset": 0,
            "slot": "6",
            "type": "t_uint256"
          },
          {
            "astId": 117,
            "contract": "contracts/VELAMIS.sol:Velamis",
            "label": "_marketCap",
            "offset": 0,
            "slot": "7",
            "type": "t_uint256"
          },
          {
            "astId": 120,
            "contract": "contracts/VELAMIS.sol:Velamis",
            "label": "_distributed",
            "offset": 0,
            "slot": "8",
            "type": "t_array(t_bool)dyn_storage"
          },
          {
            "astId": 123,
            "contract": "contracts/VELAMIS.sol:Velamis",
            "label": "burnFee",
            "offset": 0,
            "slot": "9",
            "type": "t_uint256"
          },
          {
            "astId": 133,
            "contract": "contracts/VELAMIS.sol:Velamis",
            "label": "issuanceIndex",
            "offset": 0,
            "slot": "10",
            "type": "t_uint256"
          },
          {
            "astId": 135,
            "contract": "contracts/VELAMIS.sol:Velamis",
            "label": "issuanceTime",
            "offset": 0,
            "slot": "11",
            "type": "t_uint256"
          },
          {
            "astId": 137,
            "contract": "contracts/VELAMIS.sol:Velamis",
            "label": "burnTime",
            "offset": 0,
            "slot": "12",
            "type": "t_uint256"
          },
          {
            "astId": 139,
            "contract": "contracts/VELAMIS.sol:Velamis",
            "label": "status",
            "offset": 0,
            "slot": "13",
            "type": "t_bool"
          },
          {
            "astId": 141,
            "contract": "contracts/VELAMIS.sol:Velamis",
            "label": "starttime",
            "offset": 0,
            "slot": "14",
            "type": "t_uint256"
          },
          {
            "astId": 143,
            "contract": "contracts/VELAMIS.sol:Velamis",
            "label": "totalBurnedTokens",
            "offset": 0,
            "slot": "15",
            "type": "t_uint256"
          }
        ],
        "types": {
          "t_address": {
            "encoding": "inplace",
            "label": "address",
            "numberOfBytes": "20"
          },
          "t_array(t_bool)dyn_storage": {
            "base": "t_bool",
            "encoding": "dynamic_array",
            "label": "bool[]",
            "numberOfBytes": "32"
          },
          "t_array(t_uint256)dyn_storage": {
            "base": "t_uint256",
            "encoding": "dynamic_array",
            "label": "uint256[]",
            "numberOfBytes": "32"
          },
          "t_bool": {
            "encoding": "inplace",
            "label": "bool",
            "numberOfBytes": "1"
          },
          "t_mapping(t_address,t_mapping(t_address,t_uint256))": {
            "encoding": "mapping",
            "key": "t_address",
            "label": "mapping(address => mapping(address => uint256))",
            "numberOfBytes": "32",
            "value": "t_mapping(t_address,t_uint256)"
          },
          "t_mapping(t_address,t_uint256)": {
            "encoding": "mapping",
            "key": "t_address",
            "label": "mapping(address => uint256)",
            "numberOfBytes": "32",
            "value": "t_uint256"
          },
          "t_string_storage": {
            "encoding": "bytes",
            "label": "string",
            "numberOfBytes": "32"
          },
          "t_uint256": {
            "encoding": "inplace",
            "label": "uint256",
            "numberOfBytes": "32"
          },
          "t_uint8": {
            "encoding": "inplace",
            "label": "uint8",
            "numberOfBytes": "1"
          }
        }
      },
      "userdoc": {
        "kind": "user",
        "methods": {},
        "version": 1
      }
    }
  }
}