{
  "_format": "hh-sol-artifact-1",
  "contractName": "Velamis",
  "sourceName": "contracts/VELAMIS.sol",
  "abi": [
    {
      "inputs": [],
      "stateMutability": "nonpayable",
      "type": "constructor"
    },
    {
      "anonymous": false,
      "inputs": [
        {
          "indexed": true,
          "internalType": "address",
          "name": "owner",
          "type": "address"
        },
        {
          "indexed": true,
          "internalType": "address",
          "name": "spender",
          "type": "address"
        },
        {
          "indexed": false,
          "internalType": "uint256",
          "name": "value",
          "type": "uint256"
        }
      ],
      "name": "Approval",
      "type": "event"
    },
    {
      "anonymous": false,
      "inputs": [
        {
          "indexed": true,
          "internalType": "address",
          "name": "from",
          "type": "address"
        },
        {
          "indexed": true,
          "internalType": "address",
          "name": "to",
          "type": "address"
        },
        {
          "indexed": false,
          "internalType": "uint256",
          "name": "value",
          "type": "uint256"
        }
      ],
      "name": "Transfer",
      "type": "event"
    },
    {
      "inputs": [],
      "name": "AdvisoryPercent",
      "outputs": [
        {
          "internalType": "uint256",
          "name": "",
          "type": "uint256"
        }
      ],
      "stateMutability": "view",
      "type": "function"
    },
    {
      "inputs": [],
      "name": "AdvisoryWallet",
      "outputs": [
        {
          "internalType": "address",
          "name": "",
          "type": "address"
        }
      ],
      "stateMutability": "view",
      "type": "function"
    },
    {
      "inputs": [],
      "name": "CompanyPercent",
      "outputs": [
        {
          "internalType": "uint256",
          "name": "",
          "type": "uint256"
        }
      ],
      "stateMutability": "view",
      "type": "function"
    },
    {
      "inputs": [],
      "name": "CompanyWallet",
      "outputs": [
        {
          "internalType": "address",
          "name": "",
          "type": "address"
        }
      ],
      "stateMutability": "view",
      "type": "function"
    },
    {
      "inputs": [],
      "name": "EcoGrowthPercent",
      "outputs": [
        {
          "internalType": "uint256",
          "name": "",
          "type": "uint256"
        }
      ],
      "stateMutability": "view",
      "type": "function"
    },
    {
      "inputs": [],
      "name": "EcoGrowthWallet",
      "outputs": [
        {
          "internalType": "address",
          "name": "",
          "type": "address"
        }
      ],
      "stateMutability": "view",
      "type": "function"
    },
    {
      "inputs": [
        {
          "internalType": "uint256",
          "name": "",
          "type": "uint256"
        }
      ],
      "name": "IssuancePercent",
      "outputs": [
        {
          "internalType": "uint256",
          "name": "",
          "type": "uint256"
        }
      ],
      "stateMutability": "view",
      "type": "function"
    },
    {
      "inputs": [],
      "name": "ManageWallet",
      "outputs": [
        {
          "internalType": "address",
          "name": "",
          "type": "address"
        }
      ],
      "stateMutability": "view",
      "type": "function"
    },
    {
      "inputs": [],
      "name": "PauseWallet",
      "outputs": [
        {
          "internalType": "address",
          "name": "",
          "type": "address"
        }
      ],
      "stateMutability": "view",
      "type": "function"
    },
    {
      "inputs": [],
      "name": "PrivSalePercent",
      "outputs": [
        {
          "internalType": "uint256",
          "name": "",
          "type": "uint256"
        }
      ],
      "stateMutability": "view",
      "type": "function"
    },
    {
      "inputs": [],
      "name": "PrivSaleWallet",
      "outputs": [
        {
          "internalType": "address",
          "name": "",
          "type": "address"
        }
      ],
      "stateMutability": "view",
      "type": "function"
    },
    {
      "inputs": [],
      "name": "PubSalePercent",
      "outputs": [
        {
          "internalType": "uint256",
          "name": "",
          "type": "uint256"
        }
      ],
      "stateMutability": "view",
      "type": "function"
    },
    {
      "inputs": [],
      "name": "PubSaleWallet",
      "outputs": [
        {
          "internalType": "address",
          "name": "",
          "type": "address"
        }
      ],
      "stateMutability": "view",
      "type": "function"
    },
    {
      "inputs": [],
      "name": "StakingRewardPercent",
      "outputs": [
        {
          "internalType": "uint256",
          "name": "",
          "type": "uint256"
        }
      ],
      "stateMutability": "view",
      "type": "function"
    },
    {
      "inputs": [],
      "name": "StakingRewardWallet",
      "outputs": [
        {
          "internalType": "address",
          "name": "",
          "type": "address"
        }
      ],
      "stateMutability": "view",
      "type": "function"
    },
    {
      "inputs": [],
      "name": "TeamPercent",
      "outputs": [
        {
          "internalType": "uint256",
          "name": "",
          "type": "uint256"
        }
      ],
      "stateMutability": "view",
      "type": "function"
    },
    {
      "inputs": [],
      "name": "TeamWallet",
      "outputs": [
        {
          "internalType": "address",
          "name": "",
          "type": "address"
        }
      ],
      "stateMutability": "view",
      "type": "function"
    },
    {
      "inputs": [],
      "name": "TreasuryPercent",
      "outputs": [
        {
          "internalType": "uint256",
          "name": "",
          "type": "uint256"
        }
      ],
      "stateMutability": "view",
      "type": "function"
    },
    {
      "inputs": [],
      "name": "TreasuryWallet",
      "outputs": [
        {
          "internalType": "address",
          "name": "",
          "type": "address"
        }
      ],
      "stateMutability": "view",
      "type": "function"
    },
    {
      "inputs": [
        {
          "internalType": "address",
          "name": "owner",
          "type": "address"
        },
        {
          "internalType": "address",
          "name": "spender",
          "type": "address"
        }
      ],
      "name": "allowance",
      "outputs": [
        {
          "internalType": "uint256",
          "name": "",
          "type": "uint256"
        }
      ],
      "stateMutability": "view",
      "type": "function"
    },
    {
      "inputs": [
        {
          "internalType": "address",
          "name": "spender",
          "type": "address"
        },
        {
          "internalType": "uint256",
          "name": "amount",
          "type": "uint256"
        }
      ],
      "name": "approve",
      "outputs": [
        {
          "internalType": "bool",
          "name": "",
          "type": "bool"
        }
      ],
      "stateMutability": "nonpayable",
      "type": "function"
    },
    {
      "inputs": [
        {
          "internalType": "address",
          "name": "account",
          "type": "address"
        }
      ],
      "name": "balanceOf",
      "outputs": [
        {
          "internalType": "uint256",
          "name": "",
          "type": "uint256"
        }
      ],
      "stateMutability": "view",
      "type": "function"
    },
    {
      "inputs": [],
      "name": "burnFee",
      "outputs": [
        {
          "internalType": "uint256",
          "name": "",
          "type": "uint256"
        }
      ],
      "stateMutability": "view",
      "type": "function"
    },
    {
      "inputs": [],
      "name": "burnTime",
      "outputs": [
        {
          "internalType": "uint256",
          "name": "",
          "type": "uint256"
        }
      ],
      "stateMutability": "view",
      "type": "function"
    },
    {
      "inputs": [
        {
          "internalType": "uint256",
          "name": "amount",
          "type": "uint256"
        }
      ],
      "name": "burnTokens",
      "outputs": [],
      "stateMutability": "nonpayable",
      "type": "function"
    },
    {
      "inputs": [],
      "name": "decimals",
      "outputs": [
        {
          "internalType": "uint8",
          "name": "",
          "type": "uint8"
        }
      ],
      "stateMutability": "view",
      "type": "function"
    },
    {
      "inputs": [
        {
          "internalType": "address",
          "name": "spender",
          "type": "address"
        },
        {
          "internalType": "uint256",
          "name": "subtractedValue",
          "type": "uint256"
        }
      ],
      "name": "decreaseAllowance",
      "outputs": [
        {
          "internalType": "bool",
          "name": "",
          "type": "bool"
        }
      ],
      "stateMutability": "nonpayable",
      "type": "function"
    },
    {
      "inputs": [
        {
          "internalType": "uint8",
          "name": "index",
          "type": "uint8"
        }
      ],
      "name": "distributeTokens",
      "outputs": [],
      "stateMutability": "nonpayable",
      "type": "function"
    },
    {
      "inputs": [
        {
          "internalType": "address",
          "name": "spender",
          "type": "address"
        },
        {
          "internalType": "uint256",
          "name": "addedValue",
          "type": "uint256"
        }
      ],
      "name": "increaseAllowance",
      "outputs": [
        {
          "internalType": "bool",
          "name": "",
          "type": "bool"
        }
      ],
      "stateMutability": "nonpayable",
      "type": "function"
    },
    {
      "inputs": [],
      "name": "intervalIssuance",
      "outputs": [
        {
          "internalType": "uint256",
          "name": "",
          "type": "uint256"
        }
      ],
      "stateMutability": "view",
      "type": "function"
    },
    {
      "inputs": [],
      "name": "issuanceIndex",
      "outputs": [
        {
          "internalType": "uint256",
          "name": "",
          "type": "uint256"
        }
      ],
      "stateMutability": "view",
      "type": "function"
    },
    {
      "inputs": [],
      "name": "issuanceTime",
      "outputs": [
        {
          "internalType": "uint256",
          "name": "",
          "type": "uint256"
        }
      ],
      "stateMutability": "view",
      "type": "function"
    },
    {
      "inputs": [],
      "name": "issueTokens",
      "outputs": [],
      "stateMutability": "nonpayable",
      "type": "function"
    },
    {
      "inputs": [],
      "name": "name",
      "outputs": [
        {
          "internalType": "string",
          "name": "",
          "type": "string"
        }
      ],
      "stateMutability": "view",
      "type": "function"
    },
    {
      "inputs": [],
      "name": "pauseContract",
      "outputs": [],
      "stateMutability": "nonpayable",
      "type": "function"
    },
    {
      "inputs": [],
      "name": "starttime",
      "outputs": [
        {
          "internalType": "uint256",
          "name": "",
          "type": "uint256"
        }
      ],
      "stateMutability": "view",
      "type": "function"
    },
    {
      "inputs": [],
      "name": "status",
      "outputs": [
        {
          "internalType": "bool",
          "name": "",
          "type": "bool"
        }
      ],
      "stateMutability": "view",
      "type": "function"
    },
    {
      "inputs": [],
      "name": "symbol",
      "outputs": [
        {
          "internalType": "string",
          "name": "",
          "type": "string"
        }
      ],
      "stateMutability": "view",
      "type": "function"
    },
    {
      "inputs": [],
      "name": "totalBurnedTokens",
      "outputs": [
        {
          "internalType": "uint256",
          "name": "",
          "type": "uint256"
        }
      ],
      "stateMutability": "view",
      "type": "function"
    },
    {
      "inputs": [],
      "name": "totalSupply",
      "outputs": [
        {
          "internalType": "uint256",
          "name": "",
          "type": "uint256"
        }
      ],
      "stateMutability": "view",
      "type": "function"
    },
    {
      "inputs": [
        {
          "internalType": "address",
          "name": "to",
          "type": "address"
        },
        {
          "internalType": "uint256",
          "name": "amount",
          "type": "uint256"
        }
      ],
      "name": "transfer",
      "outputs": [
        {
          "internalType": "bool",
          "name": "",
          "type": "bool"
        }
      ],
      "stateMutability": "nonpayable",
      "type": "function"
    },
    {
      "inputs": [
        {
          "internalType": "address",
          "name": "from",
          "type": "address"
        },
        {
          "internalType": "address",
          "name": "to",
          "type": "address"
        },
        {
          "internalType": "uint256",
          "name": "amount",
          "type": "uint256"
        }
      ],
      "name": "transferFrom",
      "outputs": [
        {
          "internalType": "bool",
          "name": "",
          "type": "bool"
        }
      ],
      "stateMutability": "nonpayable",
      "type": "function"
    }
  ],
  "bytecode": "0x6103206040526108ae608090815261095d60a052610be060c052610cde60e05261109d6101005261119b61012052611541610140526115f761016052611922610180526119d76101a052611ca06101c052611d1f6101e052611f4f61020052611fce610220526121f26102405261224d610260526124126102805261264f6102a0526126976102c0526126e06102e05261271061030052620000a690600090601562000213565b506040805180820190915260078082526656454c414d495360c81b6020909201918252620000d79160039162000269565b506040805180820190915260038082526215915360ea1b6020909201918252620001049160049162000269565b506005805460ff19166012179055600a6009819055600090553480156200012a57600080fd5b506005546200013e9060ff16600a620004b4565b6200014e906311e1a300620004cc565b60075560006006819055600d805460ff19166001179055600e54600b55600a819055600f55604080516008808252610120820190925290602082016101008036833750508151620001a7926008925060200190620002e6565b5060005b60088110156200020c57600060088281548110620001cd57620001cd620004ee565b90600052602060002090602091828204019190066101000a81548160ff0219169083151502179055508080620002039062000504565b915050620001ab565b506200055f565b82805482825590600052602060002090810192821562000257579160200282015b8281111562000257578251829061ffff1690559160200191906001019062000234565b506200026592915062000388565b5090565b828054620002779062000522565b90600052602060002090601f0160209004810192826200029b576000855562000257565b82601f10620002b657805160ff191683800117855562000257565b8280016001018555821562000257579182015b8281111562000257578251825591602001919060010190620002c9565b82805482825590600052602060002090601f01602090048101928215620002575791602002820160005b838211156200034f57835183826101000a81548160ff021916908315150217905550926020019260010160208160000104928301926001030262000310565b80156200037e5782816101000a81549060ff02191690556001016020816000010492830192600103026200034f565b5050620002659291505b5b8082111562000265576000815560010162000389565b634e487b7160e01b600052601160045260246000fd5b600181815b80851115620003f6578160001904821115620003da57620003da6200039f565b80851615620003e857918102915b93841c9390800290620003ba565b509250929050565b6000826200040f57506001620004ae565b816200041e57506000620004ae565b8160018114620004375760028114620004425762000462565b6001915050620004ae565b60ff8411156200045657620004566200039f565b50506001821b620004ae565b5060208310610133831016604e8410600b841016171562000487575081810a620004ae565b620004938383620003b5565b8060001904821115620004aa57620004aa6200039f565b0290505b92915050565b6000620004c560ff841683620003fe565b9392505050565b6000816000190483118215151615620004e957620004e96200039f565b500290565b634e487b7160e01b600052603260045260246000fd5b60006000198214156200051b576200051b6200039f565b5060010190565b600181811c908216806200053757607f821691505b602082108114156200055957634e487b7160e01b600052602260045260246000fd5b50919050565b611734806200056f6000396000f3fe608060405234801561001057600080fd5b506004361061025e5760003560e01c8063677a887011610146578063a4be4b02116100c3578063db0bbaf311610087578063db0bbaf3146104de578063dd62ed3e146104f9578063ebf6cf9b1461050c578063f4dd662614610515578063fce589d814610530578063fe738f67146103db57600080fd5b8063a4be4b02146103c2578063a9059cbb146104af578063af6cb99e14610378578063d1d8523a146104c2578063d2267a6e146104cb57600080fd5b806380c763841161010a57806380c76384146104685780638b8cb114146104705780638da588971461048b57806395d89b4114610494578063a457c2d71461049c57600080fd5b8063677a8870146103e35780636d1b229d146103fe57806370a08231146104115780637ba06d781461043a5780637fc51ee11461045557600080fd5b8063313ce567116101df5780635084ae15116101a35780635084ae15146103a757806350d1197e146103c2578063555f323a146103ca57806356b05a2a1461037857806360ab5852146103d3578063676d0e8a146103db57600080fd5b8063313ce56714610363578063384d4241146103785780633950935114610380578063439766ce146103935780634b18e6421461039d57600080fd5b806318160ddd1161022657806318160ddd1461030d578063200d2ed21461031f57806323b872dd1461032c57806327a5331e1461033f5780632bdcdb781461035a57600080fd5b806306fdde0314610263578063087140d414610281578063095ea7b3146102b457806309c03d52146102d757806311ffeaf2146102f2575b600080fd5b61026b610539565b604051610278919061143b565b60405180910390f35b61029c736742e82826f03f69b46d86ff2afaf870f9a188c681565b6040516001600160a01b039091168152602001610278565b6102c76102c23660046114ac565b6105cb565b6040519015158152602001610278565b61029c7344a7cc9762c267180e0e09d56a84d70629258e2981565b61029c73a9ed9c85a7cc10ed3cb439934a25d737c6b8d00681565b6006545b604051908152602001610278565b600d546102c79060ff1681565b6102c761033a3660046114d6565b61060f565b61029c73d0bdc14f6457511655e2290c56fdad5a3f96ddea81565b610311600a5481565b60055460405160ff9091168152602001610278565b610311600581565b6102c761038e3660046114ac565b610656565b61039b6106b7565b005b61031162278d0081565b61029c732f609c920c78535bf3ae62b92ffb131cb37b03eb81565b610311601481565b610311600f5481565b61039b61073c565b610311600a81565b61029c737de8e2b7f921ba243454b30406076a89fdf7c34381565b61039b61040c366004611512565b6109ee565b61031161041f36600461152b565b6001600160a01b031660009081526001602052604090205490565b61029c735b58e5df395f87ce0cd2a677b9a48cbb7cb3a84381565b610311610463366004611512565b610b25565b610311601981565b61029c731fa257b5aa21e21bd6fa0f421638661b8a42290281565b610311600e5481565b61026b610b46565b6102c76104aa3660046114ac565b610b55565b6102c76104bd3660046114ac565b610c0b565b610311600b5481565b61039b6104d936600461154d565b610c3c565b61029c7313200c0fac543e5a7f85791e65bea038fe6ee25d81565b610311610507366004611570565b610f2f565b610311600c5481565b61029c73333431cdae737cd1bf6ad26c22e443700710d81981565b61031160095481565b606060038054610548906115a3565b80601f0160208091040260200160405190810160405280929190818152602001828054610574906115a3565b80156105c15780601f10610596576101008083540402835291602001916105c1565b820191906000526020600020905b8154815290600101906020018083116105a457829003601f168201915b5050505050905090565b600d5460009060ff166105f95760405162461bcd60e51b81526004016105f0906115de565b60405180910390fd5b33610605818585610f80565b5060019392505050565b600d5460009060ff166106345760405162461bcd60e51b81526004016105f0906115de565b336106408582856110a9565b61064b85858561111d565b506001949350505050565b600d5460009060ff1661067b5760405162461bcd60e51b81526004016105f0906115de565b3360008181526002602090815260408083206001600160a01b038816845290915290205461060590829086906106b290879061162b565b610f80565b337313200c0fac543e5a7f85791e65bea038fe6ee25d146107305760405162461bcd60e51b815260206004820152602d60248201527f56454c414d49533a2063616c6c65722069736e27742073746f70706572206f6660448201526c081d1a194818dbdb9d1c9858dd609a1b60648201526084016105f0565b600d805460ff19169055565b33736742e82826f03f69b46d86ff2afaf870f9a188c61461076f5760405162461bcd60e51b81526004016105f090611643565b600d5460ff166107915760405162461bcd60e51b81526004016105f0906115de565b6014600a5411156107e45760405162461bcd60e51b815260206004820152601f60248201527f56454c414d49533a20746f6b656e206973737561636520697320656e6465640060448201526064016105f0565b600b544210156108455760405162461bcd60e51b815260206004820152602660248201527f56454c414d49533a2069742069736e27742074686520697373756163652074696044820152656d65206e6f7760d01b60648201526084016105f0565b600a54600090156108c75761271060006001600a546108649190611690565b81548110610874576108746116a7565b90600052602060002001546000600a5481548110610894576108946116a7565b90600052602060002001546108a99190611690565b6007546108b691906116bd565b6108c091906116dc565b9050610904565b6127106000600a54815481106108df576108df6116a7565b90600052602060002001546007546108f791906116bd565b61090191906116dc565b90505b736742e82826f03f69b46d86ff2afaf870f9a188c6600090815260016020527fee8aaf4e0f85ec16b756f8a07b01337af9540e49c04a5b84e30b17212fdbc088805483929061095490849061162b565b92505081905550806006600082825461096d919061162b565b9250508190555062278d00600b6000828254610989919061162b565b9091555050600a5461099c90600161162b565b600a55604051818152736742e82826f03f69b46d86ff2afaf870f9a188c6906000907fddf252ad1be2c89b69c2b068fc378daa952ba7f163c4a11628f55a4df523b3ef9060200160405180910390a350565b33736742e82826f03f69b46d86ff2afaf870f9a188c614610a215760405162461bcd60e51b81526004016105f090611643565b600d5460ff16610a435760405162461bcd60e51b81526004016105f0906115de565b6000606460095483610a5591906116bd565b610a5f91906116dc565b9050600060646007546032610a7491906116bd565b610a7e91906116dc565b905080600f5410610add5760405162461bcd60e51b815260206004820152602360248201527f56454c414d49533a20746f6b656e73206861766520616c7265616479206275726044820152621b995960ea1b60648201526084016105f0565b8082600f54610aec919061162b565b1115610b0257600f54610aff9082611690565b91505b610b20736742e82826f03f69b46d86ff2afaf870f9a188c6836112f2565b505050565b60008181548110610b3557600080fd5b600091825260209091200154905081565b606060048054610548906115a3565b600d5460009060ff16610b7a5760405162461bcd60e51b81526004016105f0906115de565b3360008181526002602090815260408083206001600160a01b038816845290915290205483811015610bfe5760405162461bcd60e51b815260206004820152602760248201527f56454c414d49533a2064656372656173656420616c6c6f77616e63652062656c6044820152666f77207a65726f60c81b60648201526084016105f0565b61064b8286868403610f80565b600d5460009060ff16610c305760405162461bcd60e51b81526004016105f0906115de565b3361060581858561111d565b33736742e82826f03f69b46d86ff2afaf870f9a188c614610c6f5760405162461bcd60e51b81526004016105f090611643565b600d5460ff16610c915760405162461bcd60e51b81526004016105f0906115de565b60088160ff1610610cf05760405162461bcd60e51b815260206004820152602360248201527f56454c414d49533a20696e646578206d757374206265206c657373207468616e604482015262101c1760e91b60648201526084016105f0565b60088160ff1681548110610d0657610d066116a7565b90600052602060002090602091828204019190069054906101000a900460ff1615610d995760405162461bcd60e51b815260206004820152603760248201527f56454c414d49533a20646973747269627574696f6e207769746820746869732060448201527f696e6465782068616420616c726561647920646f6e652e00000000000000000060648201526084016105f0565b60008060ff8316610dc35750732f609c920c78535bf3ae62b92ffb131cb37b03eb90506005610eec565b8260ff1660011415610dee575073d0bdc14f6457511655e2290c56fdad5a3f96ddea9050600a610eec565b8260ff1660021415610e195750731fa257b5aa21e21bd6fa0f421638661b8a42290290506005610eec565b8260ff1660031415610e445750737de8e2b7f921ba243454b30406076a89fdf7c34390506005610eec565b8260ff1660041415610e6f5750735b58e5df395f87ce0cd2a677b9a48cbb7cb3a8439050600a610eec565b8260ff1660051415610e9a575073333431cdae737cd1bf6ad26c22e443700710d81990506014610eec565b8260ff1660061415610ec5575073a9ed9c85a7cc10ed3cb439934a25d737c6b8d00690506019610eec565b8260ff1660071415610eec57507344a7cc9762c267180e0e09d56a84d70629258e29905060145b6000606482600754610efe91906116bd565b610f0891906116dc565b9050610f29736742e82826f03f69b46d86ff2afaf870f9a188c6848361111d565b50505050565b600d5460009060ff16610f545760405162461bcd60e51b81526004016105f0906115de565b506001600160a01b03918216600090815260026020908152604080832093909416825291909152205490565b6001600160a01b038316610fe55760405162461bcd60e51b815260206004820152602660248201527f56454c414d49533a20617070726f76652066726f6d20746865207a65726f206160448201526564647265737360d01b60648201526084016105f0565b6001600160a01b0382166110475760405162461bcd60e51b8152602060048201526024808201527f56454c414d49533a20617070726f766520746f20746865207a65726f206164646044820152637265737360e01b60648201526084016105f0565b6001600160a01b0383811660008181526002602090815260408083209487168084529482529182902085905590518481527f8c5be1e5ebec7d5bd14f71427d1e84f3dd0314c0f7b2291e5b200ac8c7c3b92591015b60405180910390a3505050565b60006110b58484610f2f565b90506000198114610f2957818110156111105760405162461bcd60e51b815260206004820152601f60248201527f56454c414d49533a20696e73756666696369656e7420616c6c6f77616e63650060448201526064016105f0565b610f298484848403610f80565b6001600160a01b0383166111835760405162461bcd60e51b815260206004820152602760248201527f56454c414d49533a207472616e736665722066726f6d20746865207a65726f206044820152666164647265737360c81b60648201526084016105f0565b6001600160a01b0382166111e75760405162461bcd60e51b815260206004820152602560248201527f56454c414d49533a207472616e7366657220746f20746865207a65726f206164604482015264647265737360d81b60648201526084016105f0565b6001600160a01b038316600090815260016020526040902054818110156112615760405162461bcd60e51b815260206004820152602860248201527f56454c414d49533a207472616e7366657220616d6f756e7420657863656564736044820152672062616c616e636560c01b60648201526084016105f0565b6001600160a01b0380851660009081526001602052604080822085850390559185168152908120805484929061129890849061162b565b92505081905550826001600160a01b0316846001600160a01b03167fddf252ad1be2c89b69c2b068fc378daa952ba7f163c4a11628f55a4df523b3ef846040516112e491815260200190565b60405180910390a350505050565b6001600160a01b0382166113545760405162461bcd60e51b815260206004820152602360248201527f56454c414d49533a206275726e2066726f6d20746865207a65726f206164647260448201526265737360e81b60648201526084016105f0565b6001600160a01b038216600090815260016020526040902054818110156113c95760405162461bcd60e51b8152602060048201526024808201527f56454c414d49533a206275726e20616d6f756e7420657863656564732062616c604482015263616e636560e01b60648201526084016105f0565b6001600160a01b03831660009081526001602052604081208383039055600680548492906113f8908490611690565b90915550506040518281526000906001600160a01b038516907fddf252ad1be2c89b69c2b068fc378daa952ba7f163c4a11628f55a4df523b3ef9060200161109c565b600060208083528351808285015260005b818110156114685785810183015185820160400152820161144c565b8181111561147a576000604083870101525b50601f01601f1916929092016040019392505050565b80356001600160a01b03811681146114a757600080fd5b919050565b600080604083850312156114bf57600080fd5b6114c883611490565b946020939093013593505050565b6000806000606084860312156114eb57600080fd5b6114f484611490565b925061150260208501611490565b9150604084013590509250925092565b60006020828403121561152457600080fd5b5035919050565b60006020828403121561153d57600080fd5b61154682611490565b9392505050565b60006020828403121561155f57600080fd5b813560ff8116811461154657600080fd5b6000806040838503121561158357600080fd5b61158c83611490565b915061159a60208401611490565b90509250929050565b600181811c908216806115b757607f821691505b602082108114156115d857634e487b7160e01b600052602260045260246000fd5b50919050565b6020808252601c908201527f56454c414d49533a20636f6e74726163742069732073746f7070656400000000604082015260600190565b634e487b7160e01b600052601160045260246000fd5b6000821982111561163e5761163e611615565b500190565b6020808252602d908201527f56454c414d49533a2063616c6c65722069736e2774206d616e61676572206f6660408201526c081d1a194818dbdb9d1c9858dd609a1b606082015260800190565b6000828210156116a2576116a2611615565b500390565b634e487b7160e01b600052603260045260246000fd5b60008160001904831182151516156116d7576116d7611615565b500290565b6000826116f957634e487b7160e01b600052601260045260246000fd5b50049056fea264697066735822122025b768c19558084e6bc281dc5da0639c1d272c97cde10bc2eea5a859e75dea7864736f6c634300080a0033",
  "linkReferences": {},
  "deployedLinkReferences": {}
}